{
  "_format": "hh-sol-artifact-1",
  "contractName": "EWordEngContracttttt",
  "sourceName": "contracts/EWordEngContracttttt.sol",
  "abi": [
    {
      "inputs": [],
      "stateMutability": "nonpayable",
      "type": "constructor"
    },
    {
      "anonymous": false,
      "inputs": [
        {
          "indexed": false,
          "internalType": "address",
          "name": "recipient",
          "type": "address"
        },
        {
          "indexed": false,
          "internalType": "uint256",
          "name": "wordId",
          "type": "uint256"
        }
      ],
      "name": "AddWord",
      "type": "event"
    },
    {
      "anonymous": false,
      "inputs": [
        {
          "indexed": true,
          "internalType": "address",
          "name": "owner",
          "type": "address"
        },
        {
          "indexed": true,
          "internalType": "address",
          "name": "spender",
          "type": "address"
        },
        {
          "indexed": false,
          "internalType": "uint256",
          "name": "value",
          "type": "uint256"
        }
      ],
      "name": "Approval",
      "type": "event"
    },
    {
      "anonymous": false,
      "inputs": [
        {
          "indexed": true,
          "internalType": "address",
          "name": "from",
          "type": "address"
        },
        {
          "indexed": true,
          "internalType": "address",
          "name": "to",
          "type": "address"
        },
        {
          "indexed": false,
          "internalType": "uint256",
          "name": "value",
          "type": "uint256"
        }
      ],
      "name": "Transfer",
      "type": "event"
    },
    {
      "inputs": [
        {
          "internalType": "string",
          "name": "engword",
          "type": "string"
        },
        {
          "internalType": "string",
          "name": "engword_pronounciation",
          "type": "string"
        },
        {
          "internalType": "string",
          "name": "engword_explained",
          "type": "string"
        }
      ],
      "name": "addEWord",
      "outputs": [],
      "stateMutability": "nonpayable",
      "type": "function"
    },
    {
      "inputs": [
        {
          "internalType": "address",
          "name": "owner",
          "type": "address"
        },
        {
          "internalType": "address",
          "name": "spender",
          "type": "address"
        }
      ],
      "name": "allowance",
      "outputs": [
        {
          "internalType": "uint256",
          "name": "",
          "type": "uint256"
        }
      ],
      "stateMutability": "view",
      "type": "function"
    },
    {
      "inputs": [
        {
          "internalType": "address",
          "name": "spender",
          "type": "address"
        },
        {
          "internalType": "uint256",
          "name": "amount",
          "type": "uint256"
        }
      ],
      "name": "approve",
      "outputs": [
        {
          "internalType": "bool",
          "name": "",
          "type": "bool"
        }
      ],
      "stateMutability": "nonpayable",
      "type": "function"
    },
    {
      "inputs": [
        {
          "internalType": "address",
          "name": "account",
          "type": "address"
        }
      ],
      "name": "balanceOf",
      "outputs": [
        {
          "internalType": "uint256",
          "name": "",
          "type": "uint256"
        }
      ],
      "stateMutability": "view",
      "type": "function"
    },
    {
      "inputs": [],
      "name": "decimals",
      "outputs": [
        {
          "internalType": "uint8",
          "name": "",
          "type": "uint8"
        }
      ],
      "stateMutability": "view",
      "type": "function"
    },
    {
      "inputs": [
        {
          "internalType": "address",
          "name": "spender",
          "type": "address"
        },
        {
          "internalType": "uint256",
          "name": "subtractedValue",
          "type": "uint256"
        }
      ],
      "name": "decreaseAllowance",
      "outputs": [
        {
          "internalType": "bool",
          "name": "",
          "type": "bool"
        }
      ],
      "stateMutability": "nonpayable",
      "type": "function"
    },
    {
      "inputs": [
        {
          "internalType": "uint256",
          "name": "wordid",
          "type": "uint256"
        }
      ],
      "name": "getAddedEngWordEngExplainedAndPronounciation",
      "outputs": [
        {
          "internalType": "string",
          "name": "",
          "type": "string"
        },
        {
          "internalType": "string",
          "name": "",
          "type": "string"
        },
        {
          "internalType": "string",
          "name": "",
          "type": "string"
        }
      ],
      "stateMutability": "view",
      "type": "function"
    },
    {
      "inputs": [],
      "name": "getEWords",
      "outputs": [
        {
          "components": [
            {
              "internalType": "uint256",
              "name": "id",
              "type": "uint256"
            },
            {
              "internalType": "string",
              "name": "engword",
              "type": "string"
            },
            {
              "internalType": "string",
              "name": "engword_pronounciation",
              "type": "string"
            },
            {
              "internalType": "string",
              "name": "engword_explained",
              "type": "string"
            }
          ],
          "internalType": "struct EWordEngContracttttt.EWord[]",
          "name": "",
          "type": "tuple[]"
        }
      ],
      "stateMutability": "view",
      "type": "function"
    },
    {
      "inputs": [
        {
          "internalType": "uint256",
          "name": "wordid",
          "type": "uint256"
        }
      ],
      "name": "getEWords1",
      "outputs": [
        {
          "components": [
            {
              "internalType": "uint256",
              "name": "id",
              "type": "uint256"
            },
            {
              "internalType": "string",
              "name": "engword",
              "type": "string"
            },
            {
              "internalType": "string",
              "name": "engword_pronounciation",
              "type": "string"
            },
            {
              "internalType": "string",
              "name": "engword_explained",
              "type": "string"
            }
          ],
          "internalType": "struct EWordEngContracttttt.EWord[]",
          "name": "",
          "type": "tuple[]"
        }
      ],
      "stateMutability": "view",
      "type": "function"
    },
    {
      "inputs": [
        {
          "internalType": "uint256",
          "name": "wordid",
          "type": "uint256"
        }
      ],
      "name": "getEngWordEngExplainedAndPronounciation",
      "outputs": [
        {
          "internalType": "string",
          "name": "",
          "type": "string"
        },
        {
          "internalType": "string",
          "name": "",
          "type": "string"
        },
        {
          "internalType": "string",
          "name": "",
          "type": "string"
        }
      ],
      "stateMutability": "view",
      "type": "function"
    },
    {
      "inputs": [
        {
          "internalType": "uint256",
          "name": "wordid",
          "type": "uint256"
        }
      ],
      "name": "getListOfFiveWords",
      "outputs": [
        {
          "components": [
            {
              "internalType": "uint256",
              "name": "id",
              "type": "uint256"
            },
            {
              "internalType": "string",
              "name": "engword",
              "type": "string"
            },
            {
              "internalType": "string",
              "name": "engword_pronounciation",
              "type": "string"
            },
            {
              "internalType": "string",
              "name": "engword_explained",
              "type": "string"
            }
          ],
          "internalType": "struct EWordEngContracttttt.EWord[]",
          "name": "",
          "type": "tuple[]"
        }
      ],
      "stateMutability": "view",
      "type": "function"
    },
    {
      "inputs": [
        {
          "internalType": "address",
          "name": "spender",
          "type": "address"
        },
        {
          "internalType": "uint256",
          "name": "addedValue",
          "type": "uint256"
        }
      ],
      "name": "increaseAllowance",
      "outputs": [
        {
          "internalType": "bool",
          "name": "",
          "type": "bool"
        }
      ],
      "stateMutability": "nonpayable",
      "type": "function"
    },
    {
      "inputs": [],
      "name": "name",
      "outputs": [
        {
          "internalType": "string",
          "name": "",
          "type": "string"
        }
      ],
      "stateMutability": "view",
      "type": "function"
    },
    {
      "inputs": [],
      "name": "symbol",
      "outputs": [
        {
          "internalType": "string",
          "name": "",
          "type": "string"
        }
      ],
      "stateMutability": "view",
      "type": "function"
    },
    {
      "inputs": [],
      "name": "totalSupply",
      "outputs": [
        {
          "internalType": "uint256",
          "name": "",
          "type": "uint256"
        }
      ],
      "stateMutability": "view",
      "type": "function"
    },
    {
      "inputs": [
        {
          "internalType": "address",
          "name": "to",
          "type": "address"
        },
        {
          "internalType": "uint256",
          "name": "amount",
          "type": "uint256"
        }
      ],
      "name": "transfer",
      "outputs": [
        {
          "internalType": "bool",
          "name": "",
          "type": "bool"
        }
      ],
      "stateMutability": "nonpayable",
      "type": "function"
    },
    {
      "inputs": [
        {
          "internalType": "address",
          "name": "from",
          "type": "address"
        },
        {
          "internalType": "address",
          "name": "to",
          "type": "address"
        },
        {
          "internalType": "uint256",
          "name": "amount",
          "type": "uint256"
        }
      ],
      "name": "transferFrom",
      "outputs": [
        {
          "internalType": "bool",
          "name": "",
          "type": "bool"
        }
      ],
      "stateMutability": "nonpayable",
      "type": "function"
    },
    {
      "inputs": [
        {
          "internalType": "string",
          "name": "engword",
          "type": "string"
        }
      ],
      "name": "whetherEWordExists",
      "outputs": [
        {
          "internalType": "bool",
          "name": "",
          "type": "bool"
        }
      ],
      "stateMutability": "view",
      "type": "function"
    }
  ],
  "bytecode": "0x60806040523480156200001157600080fd5b5060405180602001604052806000815250604051806020016040528060008152508160039081620000439190620002d8565b508060049081620000559190620002d8565b505050620003bf565b600081519050919050565b7f4e487b7100000000000000000000000000000000000000000000000000000000600052604160045260246000fd5b7f4e487b7100000000000000000000000000000000000000000000000000000000600052602260045260246000fd5b60006002820490506001821680620000e057607f821691505b602082108103620000f657620000f562000098565b5b50919050565b60008190508160005260206000209050919050565b60006020601f8301049050919050565b600082821b905092915050565b600060088302620001607fffffffffffffffffffffffffffffffffffffffffffffffffffffffffffffffff8262000121565b6200016c868362000121565b95508019841693508086168417925050509392505050565b6000819050919050565b6000819050919050565b6000620001b9620001b3620001ad8462000184565b6200018e565b62000184565b9050919050565b6000819050919050565b620001d58362000198565b620001ed620001e482620001c0565b8484546200012e565b825550505050565b600090565b62000204620001f5565b62000211818484620001ca565b505050565b5b8181101562000239576200022d600082620001fa565b60018101905062000217565b5050565b601f82111562000288576200025281620000fc565b6200025d8462000111565b810160208510156200026d578190505b620002856200027c8562000111565b83018262000216565b50505b505050565b600082821c905092915050565b6000620002ad600019846008026200028d565b1980831691505092915050565b6000620002c883836200029a565b9150826002028217905092915050565b620002e3826200005e565b67ffffffffffffffff811115620002ff57620002fe62000069565b5b6200030b8254620000c7565b620003188282856200023d565b600060209050601f8311600181146200035057600084156200033b578287015190505b620003478582620002ba565b865550620003b7565b601f1984166200036086620000fc565b60005b828110156200038a5784890151825560018201915060208501945060208101905062000363565b86831015620003aa5784890151620003a6601f8916826200029a565b8355505b6001600288020188555050505b505050505050565b612d1280620003cf6000396000f3fe608060405234801561001057600080fd5b50600436106101165760003560e01c8063619e54ea116100a25780639d72e6bf116100715780639d72e6bf14610321578063a457c2d714610351578063a9059cbb14610381578063d84de2bb146103b1578063dd62ed3e146103e157610116565b8063619e54ea1461028357806370a08231146102b557806376f18958146102e557806395d89b411461030357610116565b806325ab7114116100e957806325ab7114146101b7578063313ce567146101e9578063368766a814610207578063395093511461023757806349d926b91461026757610116565b806306fdde031461011b578063095ea7b31461013957806318160ddd1461016957806323b872dd14610187575b600080fd5b610123610411565b6040516101309190611d79565b60405180910390f35b610153600480360381019061014e9190611e43565b6104a3565b6040516101609190611e9e565b60405180910390f35b6101716104c6565b60405161017e9190611ec8565b60405180910390f35b6101a1600480360381019061019c9190611ee3565b6104d0565b6040516101ae9190611e9e565b60405180910390f35b6101d160048036038101906101cc9190611f36565b6104ff565b6040516101e093929190611f63565b60405180910390f35b6101f1610724565b6040516101fe9190611fcb565b60405180910390f35b610221600480360381019061021c919061211b565b61072d565b60405161022e9190611e9e565b60405180910390f35b610251600480360381019061024c9190611e43565b610812565b60405161025e9190611e9e565b60405180910390f35b610281600480360381019061027c9190612164565b610849565b005b61029d60048036038101906102989190611f36565b61097e565b6040516102ac93929190611f63565b60405180910390f35b6102cf60048036038101906102ca919061220b565b610ba3565b6040516102dc9190611ec8565b60405180910390f35b6102ed610beb565b6040516102fa91906123c4565b60405180910390f35b61030b610f41565b6040516103189190611d79565b60405180910390f35b61033b60048036038101906103369190611f36565b610fd3565b60405161034891906123c4565b60405180910390f35b61036b60048036038101906103669190611e43565b61135b565b6040516103789190611e9e565b60405180910390f35b61039b60048036038101906103969190611e43565b6113d2565b6040516103a89190611e9e565b60405180910390f35b6103cb60048036038101906103c69190611f36565b6113f5565b6040516103d891906123c4565b60405180910390f35b6103fb60048036038101906103f691906123e6565b61175d565b6040516104089190611ec8565b60405180910390f35b60606003805461042090612455565b80601f016020809104026020016040519081016040528092919081815260200182805461044c90612455565b80156104995780601f1061046e57610100808354040283529160200191610499565b820191906000526020600020905b81548152906001019060200180831161047c57829003601f168201915b5050505050905090565b6000806104ae6117e4565b90506104bb8185856117ec565b600191505092915050565b6000600254905090565b6000806104db6117e4565b90506104e88582856119b5565b6104f3858585611a41565b60019150509392505050565b60608060606005848154811061051857610517612486565b5b90600052602060002090600402016001016005858154811061053d5761053c612486565b5b90600052602060002090600402016002016005868154811061056257610561612486565b5b906000526020600020906004020160030182805461057f90612455565b80601f01602080910402602001604051908101604052809291908181526020018280546105ab90612455565b80156105f85780601f106105cd576101008083540402835291602001916105f8565b820191906000526020600020905b8154815290600101906020018083116105db57829003601f168201915b5050505050925081805461060b90612455565b80601f016020809104026020016040519081016040528092919081815260200182805461063790612455565b80156106845780601f1061065957610100808354040283529160200191610684565b820191906000526020600020905b81548152906001019060200180831161066757829003601f168201915b5050505050915080805461069790612455565b80601f01602080910402602001604051908101604052809291908181526020018280546106c390612455565b80156107105780601f106106e557610100808354040283529160200191610710565b820191906000526020600020905b8154815290600101906020018083116106f357829003601f168201915b505050505090509250925092509193909250565b60006012905090565b60008060058054905067ffffffffffffffff81111561074f5761074e611ff0565b5b60405190808252806020026020018201604052801561078857816020015b610775611cc1565b81526020019060019003908161076d5790505b50905060008060005b600580549050811015610806578580519060200120600582815481106107ba576107b9612486565b5b90600052602060002090600402016001016040516107d89190612558565b6040518091039020036107ee57600191506107f3565b600091505b80806107fe9061259e565b915050610791565b50809350505050919050565b60008061081d6117e4565b905061083e81858561082f858961175d565b61083991906125e6565b6117ec565b600191505092915050565b60006005805490509050600560405180608001604052808381526020018681526020018581526020018481525090806001815401808255809150506001900390600052602060002090600402016000909190919091506000820151816000015560208201518160010190816108be91906127c6565b5060408201518160020190816108d491906127c6565b5060608201518160030190816108ea91906127c6565b50505033600d600083815260200190815260200160002060006101000a81548173ffffffffffffffffffffffffffffffffffffffff021916908373ffffffffffffffffffffffffffffffffffffffff1602179055507f671522cfa2688f05436872ff42ab995ee9330783a1d8023ffafe4d9b366050e833826040516109709291906128a7565b60405180910390a150505050565b60608060606005848154811061099757610996612486565b5b9060005260206000209060040201600101600585815481106109bc576109bb612486565b5b9060005260206000209060040201600201600586815481106109e1576109e0612486565b5b90600052602060002090600402016003018280546109fe90612455565b80601f0160208091040260200160405190810160405280929190818152602001828054610a2a90612455565b8015610a775780601f10610a4c57610100808354040283529160200191610a77565b820191906000526020600020905b815481529060010190602001808311610a5a57829003601f168201915b50505050509250818054610a8a90612455565b80601f0160208091040260200160405190810160405280929190818152602001828054610ab690612455565b8015610b035780601f10610ad857610100808354040283529160200191610b03565b820191906000526020600020905b815481529060010190602001808311610ae657829003601f168201915b50505050509150808054610b1690612455565b80601f0160208091040260200160405190810160405280929190818152602001828054610b4290612455565b8015610b8f5780601f10610b6457610100808354040283529160200191610b8f565b820191906000526020600020905b815481529060010190602001808311610b7257829003601f168201915b505050505090509250925092509193909250565b60008060008373ffffffffffffffffffffffffffffffffffffffff1673ffffffffffffffffffffffffffffffffffffffff168152602001908152602001600020549050919050565b6060600060058054905067ffffffffffffffff811115610c0e57610c0d611ff0565b5b604051908082528060200260200182016040528015610c4757816020015b610c34611cc1565b815260200190600190039081610c2c5790505b5090506000805b600580549050811015610e875760058181548110610c6f57610c6e612486565b5b906000526020600020906004020160405180608001604052908160008201548152602001600182018054610ca290612455565b80601f0160208091040260200160405190810160405280929190818152602001828054610cce90612455565b8015610d1b5780601f10610cf057610100808354040283529160200191610d1b565b820191906000526020600020905b815481529060010190602001808311610cfe57829003601f168201915b50505050508152602001600282018054610d3490612455565b80601f0160208091040260200160405190810160405280929190818152602001828054610d6090612455565b8015610dad5780601f10610d8257610100808354040283529160200191610dad565b820191906000526020600020905b815481529060010190602001808311610d9057829003601f168201915b50505050508152602001600382018054610dc690612455565b80601f0160208091040260200160405190810160405280929190818152602001828054610df290612455565b8015610e3f5780601f10610e1457610100808354040283529160200191610e3f565b820191906000526020600020905b815481529060010190602001808311610e2257829003601f168201915b505050505081525050838381518110610e5b57610e5a612486565b5b60200260200101819052508180610e719061259e565b9250508080610e7f9061259e565b915050610c4e565b5060008167ffffffffffffffff811115610ea457610ea3611ff0565b5b604051908082528060200260200182016040528015610edd57816020015b610eca611cc1565b815260200190600190039081610ec25790505b50905060005b82811015610f3757838181518110610efe57610efd612486565b5b6020026020010151828281518110610f1957610f18612486565b5b60200260200101819052508080610f2f9061259e565b915050610ee3565b5080935050505090565b606060048054610f5090612455565b80601f0160208091040260200160405190810160405280929190818152602001828054610f7c90612455565b8015610fc95780601f10610f9e57610100808354040283529160200191610fc9565b820191906000526020600020905b815481529060010190602001808311610fac57829003601f168201915b5050505050905090565b6060600060058054905067ffffffffffffffff811115610ff657610ff5611ff0565b5b60405190808252806020026020018201604052801561102f57816020015b61101c611cc1565b8152602001906001900390816110145790505b50905060008060058561104291906125e6565b905060008590505b8160058054905060058054905061106191906128d0565b61106b91906125e6565b81101561129e576005818154811061108657611085612486565b5b9060005260206000209060040201604051806080016040529081600082015481526020016001820180546110b990612455565b80601f01602080910402602001604051908101604052809291908181526020018280546110e590612455565b80156111325780601f1061110757610100808354040283529160200191611132565b820191906000526020600020905b81548152906001019060200180831161111557829003601f168201915b5050505050815260200160028201805461114b90612455565b80601f016020809104026020016040519081016040528092919081815260200182805461117790612455565b80156111c45780601f10611199576101008083540402835291602001916111c4565b820191906000526020600020905b8154815290600101906020018083116111a757829003601f168201915b505050505081526020016003820180546111dd90612455565b80601f016020809104026020016040519081016040528092919081815260200182805461120990612455565b80156112565780601f1061122b57610100808354040283529160200191611256565b820191906000526020600020905b81548152906001019060200180831161123957829003601f168201915b50505050508152505084848151811061127257611271612486565b5b602002602001018190525082806112889061259e565b93505080806112969061259e565b91505061104a565b5060008267ffffffffffffffff8111156112bb576112ba611ff0565b5b6040519080825280602002602001820160405280156112f457816020015b6112e1611cc1565b8152602001906001900390816112d95790505b50905060005b8381101561134e5784818151811061131557611314612486565b5b60200260200101518282815181106113305761132f612486565b5b602002602001018190525080806113469061259e565b9150506112fa565b5080945050505050919050565b6000806113666117e4565b90506000611374828661175d565b9050838110156113b9576040517f08c379a00000000000000000000000000000000000000000000000000000000081526004016113b090612976565b60405180910390fd5b6113c682868684036117ec565b60019250505092915050565b6000806113dd6117e4565b90506113ea818585611a41565b600191505092915050565b6060600060058054905067ffffffffffffffff81111561141857611417611ff0565b5b60405190808252806020026020018201604052801561145157816020015b61143e611cc1565b8152602001906001900390816114365790505b509050600080848161146391906125e6565b905060008590505b60058110156116a0576005818154811061148857611487612486565b5b9060005260206000209060040201604051806080016040529081600082015481526020016001820180546114bb90612455565b80601f01602080910402602001604051908101604052809291908181526020018280546114e790612455565b80156115345780601f1061150957610100808354040283529160200191611534565b820191906000526020600020905b81548152906001019060200180831161151757829003601f168201915b5050505050815260200160028201805461154d90612455565b80601f016020809104026020016040519081016040528092919081815260200182805461157990612455565b80156115c65780601f1061159b576101008083540402835291602001916115c6565b820191906000526020600020905b8154815290600101906020018083116115a957829003601f168201915b505050505081526020016003820180546115df90612455565b80601f016020809104026020016040519081016040528092919081815260200182805461160b90612455565b80156116585780601f1061162d57610100808354040283529160200191611658565b820191906000526020600020905b81548152906001019060200180831161163b57829003601f168201915b50505050508152505084848151811061167457611673612486565b5b6020026020010181905250828061168a9061259e565b93505080806116989061259e565b91505061146b565b5060008267ffffffffffffffff8111156116bd576116bc611ff0565b5b6040519080825280602002602001820160405280156116f657816020015b6116e3611cc1565b8152602001906001900390816116db5790505b50905060005b838110156117505784818151811061171757611716612486565b5b602002602001015182828151811061173257611731612486565b5b602002602001018190525080806117489061259e565b9150506116fc565b5080945050505050919050565b6000600160008473ffffffffffffffffffffffffffffffffffffffff1673ffffffffffffffffffffffffffffffffffffffff16815260200190815260200160002060008373ffffffffffffffffffffffffffffffffffffffff1673ffffffffffffffffffffffffffffffffffffffff16815260200190815260200160002054905092915050565b600033905090565b600073ffffffffffffffffffffffffffffffffffffffff168373ffffffffffffffffffffffffffffffffffffffff160361185b576040517f08c379a000000000000000000000000000000000000000000000000000000000815260040161185290612a08565b60405180910390fd5b600073ffffffffffffffffffffffffffffffffffffffff168273ffffffffffffffffffffffffffffffffffffffff16036118ca576040517f08c379a00000000000000000000000000000000000000000000000000000000081526004016118c190612a9a565b60405180910390fd5b80600160008573ffffffffffffffffffffffffffffffffffffffff1673ffffffffffffffffffffffffffffffffffffffff16815260200190815260200160002060008473ffffffffffffffffffffffffffffffffffffffff1673ffffffffffffffffffffffffffffffffffffffff168152602001908152602001600020819055508173ffffffffffffffffffffffffffffffffffffffff168373ffffffffffffffffffffffffffffffffffffffff167f8c5be1e5ebec7d5bd14f71427d1e84f3dd0314c0f7b2291e5b200ac8c7c3b925836040516119a89190611ec8565b60405180910390a3505050565b60006119c1848461175d565b90507fffffffffffffffffffffffffffffffffffffffffffffffffffffffffffffffff8114611a3b5781811015611a2d576040517f08c379a0000000000000000000000000000000000000000000000000000000008152600401611a2490612b06565b60405180910390fd5b611a3a84848484036117ec565b5b50505050565b600073ffffffffffffffffffffffffffffffffffffffff168373ffffffffffffffffffffffffffffffffffffffff1603611ab0576040517f08c379a0000000000000000000000000000000000000000000000000000000008152600401611aa790612b98565b60405180910390fd5b600073ffffffffffffffffffffffffffffffffffffffff168273ffffffffffffffffffffffffffffffffffffffff1603611b1f576040517f08c379a0000000000000000000000000000000000000000000000000000000008152600401611b1690612c2a565b60405180910390fd5b611b2a838383611cb7565b60008060008573ffffffffffffffffffffffffffffffffffffffff1673ffffffffffffffffffffffffffffffffffffffff16815260200190815260200160002054905081811015611bb0576040517f08c379a0000000000000000000000000000000000000000000000000000000008152600401611ba790612cbc565b60405180910390fd5b8181036000808673ffffffffffffffffffffffffffffffffffffffff1673ffffffffffffffffffffffffffffffffffffffff16815260200190815260200160002081905550816000808573ffffffffffffffffffffffffffffffffffffffff1673ffffffffffffffffffffffffffffffffffffffff168152602001908152602001600020600082825401925050819055508273ffffffffffffffffffffffffffffffffffffffff168473ffffffffffffffffffffffffffffffffffffffff167fddf252ad1be2c89b69c2b068fc378daa952ba7f163c4a11628f55a4df523b3ef84604051611c9e9190611ec8565b60405180910390a3611cb1848484611cbc565b50505050565b505050565b505050565b6040518060800160405280600081526020016060815260200160608152602001606081525090565b600081519050919050565b600082825260208201905092915050565b60005b83811015611d23578082015181840152602081019050611d08565b60008484015250505050565b6000601f19601f8301169050919050565b6000611d4b82611ce9565b611d558185611cf4565b9350611d65818560208601611d05565b611d6e81611d2f565b840191505092915050565b60006020820190508181036000830152611d938184611d40565b905092915050565b6000604051905090565b600080fd5b600080fd5b600073ffffffffffffffffffffffffffffffffffffffff82169050919050565b6000611dda82611daf565b9050919050565b611dea81611dcf565b8114611df557600080fd5b50565b600081359050611e0781611de1565b92915050565b6000819050919050565b611e2081611e0d565b8114611e2b57600080fd5b50565b600081359050611e3d81611e17565b92915050565b60008060408385031215611e5a57611e59611da5565b5b6000611e6885828601611df8565b9250506020611e7985828601611e2e565b9150509250929050565b60008115159050919050565b611e9881611e83565b82525050565b6000602082019050611eb36000830184611e8f565b92915050565b611ec281611e0d565b82525050565b6000602082019050611edd6000830184611eb9565b92915050565b600080600060608486031215611efc57611efb611da5565b5b6000611f0a86828701611df8565b9350506020611f1b86828701611df8565b9250506040611f2c86828701611e2e565b9150509250925092565b600060208284031215611f4c57611f4b611da5565b5b6000611f5a84828501611e2e565b91505092915050565b60006060820190508181036000830152611f7d8186611d40565b90508181036020830152611f918185611d40565b90508181036040830152611fa58184611d40565b9050949350505050565b600060ff82169050919050565b611fc581611faf565b82525050565b6000602082019050611fe06000830184611fbc565b92915050565b600080fd5b600080fd5b7f4e487b7100000000000000000000000000000000000000000000000000000000600052604160045260246000fd5b61202882611d2f565b810181811067ffffffffffffffff8211171561204757612046611ff0565b5b80604052505050565b600061205a611d9b565b9050612066828261201f565b919050565b600067ffffffffffffffff82111561208657612085611ff0565b5b61208f82611d2f565b9050602081019050919050565b82818337600083830152505050565b60006120be6120b98461206b565b612050565b9050828152602081018484840111156120da576120d9611feb565b5b6120e584828561209c565b509392505050565b600082601f83011261210257612101611fe6565b5b81356121128482602086016120ab565b91505092915050565b60006020828403121561213157612130611da5565b5b600082013567ffffffffffffffff81111561214f5761214e611daa565b5b61215b848285016120ed565b91505092915050565b60008060006060848603121561217d5761217c611da5565b5b600084013567ffffffffffffffff81111561219b5761219a611daa565b5b6121a7868287016120ed565b935050602084013567ffffffffffffffff8111156121c8576121c7611daa565b5b6121d4868287016120ed565b925050604084013567ffffffffffffffff8111156121f5576121f4611daa565b5b612201868287016120ed565b9150509250925092565b60006020828403121561222157612220611da5565b5b600061222f84828501611df8565b91505092915050565b600081519050919050565b600082825260208201905092915050565b6000819050602082019050919050565b61226d81611e0d565b82525050565b600082825260208201905092915050565b600061228f82611ce9565b6122998185612273565b93506122a9818560208601611d05565b6122b281611d2f565b840191505092915050565b60006080830160008301516122d56000860182612264565b50602083015184820360208601526122ed8282612284565b915050604083015184820360408601526123078282612284565b915050606083015184820360608601526123218282612284565b9150508091505092915050565b600061233a83836122bd565b905092915050565b6000602082019050919050565b600061235a82612238565b6123648185612243565b93508360208202850161237685612254565b8060005b858110156123b25784840389528151612393858261232e565b945061239e83612342565b925060208a0199505060018101905061237a565b50829750879550505050505092915050565b600060208201905081810360008301526123de818461234f565b905092915050565b600080604083850312156123fd576123fc611da5565b5b600061240b85828601611df8565b925050602061241c85828601611df8565b9150509250929050565b7f4e487b7100000000000000000000000000000000000000000000000000000000600052602260045260246000fd5b6000600282049050600182168061246d57607f821691505b6020821081036124805761247f612426565b5b50919050565b7f4e487b7100000000000000000000000000000000000000000000000000000000600052603260045260246000fd5b600081905092915050565b60008190508160005260206000209050919050565b600081546124e281612455565b6124ec81866124b5565b94506001821660008114612507576001811461251c5761254f565b60ff198316865281151582028601935061254f565b612525856124c0565b60005b8381101561254757815481890152600182019150602081019050612528565b838801955050505b50505092915050565b600061256482846124d5565b915081905092915050565b7f4e487b7100000000000000000000000000000000000000000000000000000000600052601160045260246000fd5b60006125a982611e0d565b91507fffffffffffffffffffffffffffffffffffffffffffffffffffffffffffffffff82036125db576125da61256f565b5b600182019050919050565b60006125f182611e0d565b91506125fc83611e0d565b92508282019050808211156126145761261361256f565b5b92915050565b60008190508160005260206000209050919050565b60006020601f8301049050919050565b600082821b905092915050565b60006008830261267c7fffffffffffffffffffffffffffffffffffffffffffffffffffffffffffffffff8261263f565b612686868361263f565b95508019841693508086168417925050509392505050565b6000819050919050565b60006126c36126be6126b984611e0d565b61269e565b611e0d565b9050919050565b6000819050919050565b6126dd836126a8565b6126f16126e9826126ca565b84845461264c565b825550505050565b600090565b6127066126f9565b6127118184846126d4565b505050565b5b818110156127355761272a6000826126fe565b600181019050612717565b5050565b601f82111561277a5761274b8161261a565b6127548461262f565b81016020851015612763578190505b61277761276f8561262f565b830182612716565b50505b505050565b600082821c905092915050565b600061279d6000198460080261277f565b1980831691505092915050565b60006127b6838361278c565b9150826002028217905092915050565b6127cf82611ce9565b67ffffffffffffffff8111156127e8576127e7611ff0565b5b6127f28254612455565b6127fd828285612739565b600060209050601f831160018114612830576000841561281e578287015190505b61282885826127aa565b865550612890565b601f19841661283e8661261a565b60005b8281101561286657848901518255600182019150602085019450602081019050612841565b86831015612883578489015161287f601f89168261278c565b8355505b6001600288020188555050505b505050505050565b6128a181611dcf565b82525050565b60006040820190506128bc6000830185612898565b6128c96020830184611eb9565b9392505050565b60006128db82611e0d565b91506128e683611e0d565b92508282039050818111156128fe576128fd61256f565b5b92915050565b7f45524332303a2064656372656173656420616c6c6f77616e63652062656c6f7760008201527f207a65726f000000000000000000000000000000000000000000000000000000602082015250565b6000612960602583611cf4565b915061296b82612904565b604082019050919050565b6000602082019050818103600083015261298f81612953565b9050919050565b7f45524332303a20617070726f76652066726f6d20746865207a65726f2061646460008201527f7265737300000000000000000000000000000000000000000000000000000000602082015250565b60006129f2602483611cf4565b91506129fd82612996565b604082019050919050565b60006020820190508181036000830152612a21816129e5565b9050919050565b7f45524332303a20617070726f766520746f20746865207a65726f20616464726560008201527f7373000000000000000000000000000000000000000000000000000000000000602082015250565b6000612a84602283611cf4565b9150612a8f82612a28565b604082019050919050565b60006020820190508181036000830152612ab381612a77565b9050919050565b7f45524332303a20696e73756666696369656e7420616c6c6f77616e6365000000600082015250565b6000612af0601d83611cf4565b9150612afb82612aba565b602082019050919050565b60006020820190508181036000830152612b1f81612ae3565b9050919050565b7f45524332303a207472616e736665722066726f6d20746865207a65726f20616460008201527f6472657373000000000000000000000000000000000000000000000000000000602082015250565b6000612b82602583611cf4565b9150612b8d82612b26565b604082019050919050565b60006020820190508181036000830152612bb181612b75565b9050919050565b7f45524332303a207472616e7366657220746f20746865207a65726f206164647260008201527f6573730000000000000000000000000000000000000000000000000000000000602082015250565b6000612c14602383611cf4565b9150612c1f82612bb8565b604082019050919050565b60006020820190508181036000830152612c4381612c07565b9050919050565b7f45524332303a207472616e7366657220616d6f756e742065786365656473206260008201527f616c616e63650000000000000000000000000000000000000000000000000000602082015250565b6000612ca6602683611cf4565b9150612cb182612c4a565b604082019050919050565b60006020820190508181036000830152612cd581612c99565b905091905056fea2646970667358221220b62eaca9620ff5f93cf15e5ab8d00ab99acccc6c06156096f5d3f7de97efe85a64736f6c63430008110033",
  "linkReferences": {},
  "deployedLinkReferences": {}
}