{
  "_format": "hh-sol-artifact-1",
  "contractName": "EWordEngWordContract",
  "sourceName": "contracts/EWordEngWordContract.sol",
  "abi": [
    {
      "inputs": [],
      "stateMutability": "nonpayable",
      "type": "constructor"
    },
    {
      "anonymous": false,
      "inputs": [
        {
          "indexed": false,
          "internalType": "address",
          "name": "recipient",
          "type": "address"
        },
        {
          "indexed": false,
          "internalType": "uint256",
          "name": "wordId",
          "type": "uint256"
        }
      ],
      "name": "AddWord",
      "type": "event"
    },
    {
      "anonymous": false,
      "inputs": [
        {
          "indexed": true,
          "internalType": "address",
          "name": "owner",
          "type": "address"
        },
        {
          "indexed": true,
          "internalType": "address",
          "name": "spender",
          "type": "address"
        },
        {
          "indexed": false,
          "internalType": "uint256",
          "name": "value",
          "type": "uint256"
        }
      ],
      "name": "Approval",
      "type": "event"
    },
    {
      "anonymous": false,
      "inputs": [
        {
          "indexed": true,
          "internalType": "address",
          "name": "from",
          "type": "address"
        },
        {
          "indexed": true,
          "internalType": "address",
          "name": "to",
          "type": "address"
        },
        {
          "indexed": false,
          "internalType": "uint256",
          "name": "value",
          "type": "uint256"
        }
      ],
      "name": "Transfer",
      "type": "event"
    },
    {
      "anonymous": false,
      "inputs": [
        {
          "indexed": false,
          "internalType": "address",
          "name": "sender",
          "type": "address"
        },
        {
          "indexed": false,
          "internalType": "bool",
          "name": "exists",
          "type": "bool"
        }
      ],
      "name": "WhetherEWord",
      "type": "event"
    },
    {
      "inputs": [
        {
          "internalType": "string",
          "name": "engword",
          "type": "string"
        },
        {
          "internalType": "string",
          "name": "engword_pronounciation",
          "type": "string"
        },
        {
          "internalType": "string",
          "name": "engword_explained",
          "type": "string"
        }
      ],
      "name": "addEWord",
      "outputs": [],
      "stateMutability": "nonpayable",
      "type": "function"
    },
    {
      "inputs": [
        {
          "internalType": "address",
          "name": "owner",
          "type": "address"
        },
        {
          "internalType": "address",
          "name": "spender",
          "type": "address"
        }
      ],
      "name": "allowance",
      "outputs": [
        {
          "internalType": "uint256",
          "name": "",
          "type": "uint256"
        }
      ],
      "stateMutability": "view",
      "type": "function"
    },
    {
      "inputs": [
        {
          "internalType": "address",
          "name": "spender",
          "type": "address"
        },
        {
          "internalType": "uint256",
          "name": "amount",
          "type": "uint256"
        }
      ],
      "name": "approve",
      "outputs": [
        {
          "internalType": "bool",
          "name": "",
          "type": "bool"
        }
      ],
      "stateMutability": "nonpayable",
      "type": "function"
    },
    {
      "inputs": [
        {
          "internalType": "address",
          "name": "account",
          "type": "address"
        }
      ],
      "name": "balanceOf",
      "outputs": [
        {
          "internalType": "uint256",
          "name": "",
          "type": "uint256"
        }
      ],
      "stateMutability": "view",
      "type": "function"
    },
    {
      "inputs": [],
      "name": "decimals",
      "outputs": [
        {
          "internalType": "uint8",
          "name": "",
          "type": "uint8"
        }
      ],
      "stateMutability": "view",
      "type": "function"
    },
    {
      "inputs": [
        {
          "internalType": "address",
          "name": "spender",
          "type": "address"
        },
        {
          "internalType": "uint256",
          "name": "subtractedValue",
          "type": "uint256"
        }
      ],
      "name": "decreaseAllowance",
      "outputs": [
        {
          "internalType": "bool",
          "name": "",
          "type": "bool"
        }
      ],
      "stateMutability": "nonpayable",
      "type": "function"
    },
    {
      "inputs": [
        {
          "internalType": "uint256",
          "name": "wordid",
          "type": "uint256"
        }
      ],
      "name": "getAddedEngWordEngExplainedAndPronounciation",
      "outputs": [
        {
          "internalType": "string",
          "name": "",
          "type": "string"
        },
        {
          "internalType": "string",
          "name": "",
          "type": "string"
        },
        {
          "internalType": "string",
          "name": "",
          "type": "string"
        }
      ],
      "stateMutability": "view",
      "type": "function"
    },
    {
      "inputs": [],
      "name": "getEWords",
      "outputs": [
        {
          "components": [
            {
              "internalType": "uint256",
              "name": "id",
              "type": "uint256"
            },
            {
              "internalType": "string",
              "name": "engword",
              "type": "string"
            },
            {
              "internalType": "string",
              "name": "engword_pronounciation",
              "type": "string"
            },
            {
              "internalType": "string",
              "name": "engword_explained",
              "type": "string"
            }
          ],
          "internalType": "struct EWordEngWordContract.EWord[]",
          "name": "",
          "type": "tuple[]"
        }
      ],
      "stateMutability": "view",
      "type": "function"
    },
    {
      "inputs": [
        {
          "internalType": "uint256",
          "name": "wordid",
          "type": "uint256"
        }
      ],
      "name": "getEWords1",
      "outputs": [
        {
          "components": [
            {
              "internalType": "uint256",
              "name": "id",
              "type": "uint256"
            },
            {
              "internalType": "string",
              "name": "engword",
              "type": "string"
            },
            {
              "internalType": "string",
              "name": "engword_pronounciation",
              "type": "string"
            },
            {
              "internalType": "string",
              "name": "engword_explained",
              "type": "string"
            }
          ],
          "internalType": "struct EWordEngWordContract.EWord[]",
          "name": "",
          "type": "tuple[]"
        }
      ],
      "stateMutability": "view",
      "type": "function"
    },
    {
      "inputs": [
        {
          "internalType": "uint256",
          "name": "wordid",
          "type": "uint256"
        }
      ],
      "name": "getEngWordEngExplainedAndPronounciation",
      "outputs": [
        {
          "internalType": "string",
          "name": "",
          "type": "string"
        },
        {
          "internalType": "string",
          "name": "",
          "type": "string"
        },
        {
          "internalType": "string",
          "name": "",
          "type": "string"
        }
      ],
      "stateMutability": "view",
      "type": "function"
    },
    {
      "inputs": [
        {
          "internalType": "uint256",
          "name": "wordid",
          "type": "uint256"
        }
      ],
      "name": "getListOfFiveWords",
      "outputs": [
        {
          "components": [
            {
              "internalType": "uint256",
              "name": "id",
              "type": "uint256"
            },
            {
              "internalType": "string",
              "name": "engword",
              "type": "string"
            },
            {
              "internalType": "string",
              "name": "engword_pronounciation",
              "type": "string"
            },
            {
              "internalType": "string",
              "name": "engword_explained",
              "type": "string"
            }
          ],
          "internalType": "struct EWordEngWordContract.EWord[]",
          "name": "",
          "type": "tuple[]"
        }
      ],
      "stateMutability": "view",
      "type": "function"
    },
    {
      "inputs": [
        {
          "internalType": "address",
          "name": "spender",
          "type": "address"
        },
        {
          "internalType": "uint256",
          "name": "addedValue",
          "type": "uint256"
        }
      ],
      "name": "increaseAllowance",
      "outputs": [
        {
          "internalType": "bool",
          "name": "",
          "type": "bool"
        }
      ],
      "stateMutability": "nonpayable",
      "type": "function"
    },
    {
      "inputs": [],
      "name": "name",
      "outputs": [
        {
          "internalType": "string",
          "name": "",
          "type": "string"
        }
      ],
      "stateMutability": "view",
      "type": "function"
    },
    {
      "inputs": [],
      "name": "symbol",
      "outputs": [
        {
          "internalType": "string",
          "name": "",
          "type": "string"
        }
      ],
      "stateMutability": "view",
      "type": "function"
    },
    {
      "inputs": [],
      "name": "totalSupply",
      "outputs": [
        {
          "internalType": "uint256",
          "name": "",
          "type": "uint256"
        }
      ],
      "stateMutability": "view",
      "type": "function"
    },
    {
      "inputs": [
        {
          "internalType": "address",
          "name": "to",
          "type": "address"
        },
        {
          "internalType": "uint256",
          "name": "amount",
          "type": "uint256"
        }
      ],
      "name": "transfer",
      "outputs": [
        {
          "internalType": "bool",
          "name": "",
          "type": "bool"
        }
      ],
      "stateMutability": "nonpayable",
      "type": "function"
    },
    {
      "inputs": [
        {
          "internalType": "address",
          "name": "from",
          "type": "address"
        },
        {
          "internalType": "address",
          "name": "to",
          "type": "address"
        },
        {
          "internalType": "uint256",
          "name": "amount",
          "type": "uint256"
        }
      ],
      "name": "transferFrom",
      "outputs": [
        {
          "internalType": "bool",
          "name": "",
          "type": "bool"
        }
      ],
      "stateMutability": "nonpayable",
      "type": "function"
    },
    {
      "inputs": [
        {
          "internalType": "string",
          "name": "engword",
          "type": "string"
        }
      ],
      "name": "whetherEWordExists",
      "outputs": [
        {
          "internalType": "bool",
          "name": "",
          "type": "bool"
        }
      ],
      "stateMutability": "nonpayable",
      "type": "function"
    },
    {
      "inputs": [
        {
          "internalType": "string",
          "name": "engword",
          "type": "string"
        }
      ],
      "name": "whetherEWordExists1",
      "outputs": [
        {
          "components": [
            {
              "internalType": "uint256",
              "name": "id",
              "type": "uint256"
            },
            {
              "internalType": "string",
              "name": "engword",
              "type": "string"
            },
            {
              "internalType": "string",
              "name": "engword_pronounciation",
              "type": "string"
            },
            {
              "internalType": "string",
              "name": "engword_explained",
              "type": "string"
            }
          ],
          "internalType": "struct EWordEngWordContract.EWord[]",
          "name": "",
          "type": "tuple[]"
        }
      ],
      "stateMutability": "view",
      "type": "function"
    }
  ],
  "bytecode": "0x60806040526000600560006101000a81548160ff0219169083151502179055503480156200002c57600080fd5b50604051806020016040528060008152506040518060200160405280600081525081600390816200005e9190620002f3565b508060049081620000709190620002f3565b505050620003da565b600081519050919050565b7f4e487b7100000000000000000000000000000000000000000000000000000000600052604160045260246000fd5b7f4e487b7100000000000000000000000000000000000000000000000000000000600052602260045260246000fd5b60006002820490506001821680620000fb57607f821691505b602082108103620001115762000110620000b3565b5b50919050565b60008190508160005260206000209050919050565b60006020601f8301049050919050565b600082821b905092915050565b6000600883026200017b7fffffffffffffffffffffffffffffffffffffffffffffffffffffffffffffffff826200013c565b6200018786836200013c565b95508019841693508086168417925050509392505050565b6000819050919050565b6000819050919050565b6000620001d4620001ce620001c8846200019f565b620001a9565b6200019f565b9050919050565b6000819050919050565b620001f083620001b3565b62000208620001ff82620001db565b84845462000149565b825550505050565b600090565b6200021f62000210565b6200022c818484620001e5565b505050565b5b8181101562000254576200024860008262000215565b60018101905062000232565b5050565b601f821115620002a3576200026d8162000117565b62000278846200012c565b8101602085101562000288578190505b620002a062000297856200012c565b83018262000231565b50505b505050565b600082821c905092915050565b6000620002c860001984600802620002a8565b1980831691505092915050565b6000620002e38383620002b5565b9150826002028217905092915050565b620002fe8262000079565b67ffffffffffffffff8111156200031a576200031962000084565b5b620003268254620000e2565b6200033382828562000258565b600060209050601f8311600181146200036b576000841562000356578287015190505b620003628582620002d5565b865550620003d2565b601f1984166200037b8662000117565b60005b82811015620003a5578489015182556001820191506020850194506020810190506200037e565b86831015620003c55784890151620003c1601f891682620002b5565b8355505b6001600288020188555050505b505050505050565b61367780620003ea6000396000f3fe608060405234801561001057600080fd5b50600436106101215760003560e01c806349d926b9116100ad5780639d72e6bf116100715780639d72e6bf1461035c578063a457c2d71461038c578063a9059cbb146103bc578063d84de2bb146103ec578063dd62ed3e1461041c57610121565b806349d926b9146102a2578063619e54ea146102be57806370a08231146102f057806376f189581461032057806395d89b411461033e57610121565b806323b872dd116100f457806323b872dd146101c257806325ab7114146101f2578063313ce56714610224578063368766a814610242578063395093511461027257610121565b806301ff83c71461012657806306fdde0314610156578063095ea7b31461017457806318160ddd146101a4575b600080fd5b610140600480360381019061013b9190612778565b61044c565b60405161014d919061298c565b60405180910390f35b61015e6107f1565b60405161016b91906129f8565b60405180910390f35b61018e60048036038101906101899190612aa4565b610883565b60405161019b9190612aff565b60405180910390f35b6101ac6108a6565b6040516101b99190612b29565b60405180910390f35b6101dc60048036038101906101d79190612b44565b6108b0565b6040516101e99190612aff565b60405180910390f35b61020c60048036038101906102079190612b97565b6108df565b60405161021b93929190612bc4565b60405180910390f35b61022c610b04565b6040516102399190612c2c565b60405180910390f35b61025c60048036038101906102579190612778565b610b0d565b6040516102699190612aff565b60405180910390f35b61028c60048036038101906102879190612aa4565b610efd565b6040516102999190612aff565b60405180910390f35b6102bc60048036038101906102b79190612c47565b610f34565b005b6102d860048036038101906102d39190612b97565b6111ee565b6040516102e793929190612bc4565b60405180910390f35b61030a60048036038101906103059190612cee565b611413565b6040516103179190612b29565b60405180910390f35b61032861145b565b604051610335919061298c565b60405180910390f35b6103466117b1565b60405161035391906129f8565b60405180910390f35b61037660048036038101906103719190612b97565b611843565b604051610383919061298c565b60405180910390f35b6103a660048036038101906103a19190612aa4565b611bcb565b6040516103b39190612aff565b60405180910390f35b6103d660048036038101906103d19190612aa4565b611c42565b6040516103e39190612aff565b60405180910390f35b61040660048036038101906104019190612b97565b611c65565b604051610413919061298c565b60405180910390f35b61043660048036038101906104319190612d1b565b611fcd565b6040516104439190612b29565b60405180910390f35b6060600060068054905067ffffffffffffffff81111561046f5761046e61264d565b5b6040519080825280602002602001820160405280156104a857816020015b6104956125f6565b81526020019060019003908161048d5790505b5090506000805b600680549050811015610735578480519060200120600682815481106104d8576104d7612d5b565b5b90600052602060002090600402016001016040516104f69190612e8d565b604051809103902003610721576006818154811061051757610516612d5b565b5b90600052602060002090600402016040518060800160405290816000820154815260200160018201805461054a90612db9565b80601f016020809104026020016040519081016040528092919081815260200182805461057690612db9565b80156105c35780601f10610598576101008083540402835291602001916105c3565b820191906000526020600020905b8154815290600101906020018083116105a657829003601f168201915b505050505081526020016002820180546105dc90612db9565b80601f016020809104026020016040519081016040528092919081815260200182805461060890612db9565b80156106555780601f1061062a57610100808354040283529160200191610655565b820191906000526020600020905b81548152906001019060200180831161063857829003601f168201915b5050505050815260200160038201805461066e90612db9565b80601f016020809104026020016040519081016040528092919081815260200182805461069a90612db9565b80156106e75780601f106106bc576101008083540402835291602001916106e7565b820191906000526020600020905b8154815290600101906020018083116106ca57829003601f168201915b50505050508152505083838151811061070357610702612d5b565b5b6020026020010181905250818061071990612ed3565b925050610722565b5b808061072d90612ed3565b9150506104af565b5060008167ffffffffffffffff8111156107525761075161264d565b5b60405190808252806020026020018201604052801561078b57816020015b6107786125f6565b8152602001906001900390816107705790505b50905060005b828110156107e5578381815181106107ac576107ab612d5b565b5b60200260200101518282815181106107c7576107c6612d5b565b5b602002602001018190525080806107dd90612ed3565b915050610791565b50809350505050919050565b60606003805461080090612db9565b80601f016020809104026020016040519081016040528092919081815260200182805461082c90612db9565b80156108795780601f1061084e57610100808354040283529160200191610879565b820191906000526020600020905b81548152906001019060200180831161085c57829003601f168201915b5050505050905090565b60008061088e612054565b905061089b81858561205c565b600191505092915050565b6000600254905090565b6000806108bb612054565b90506108c8858285612225565b6108d38585856122b1565b60019150509392505050565b6060806060600684815481106108f8576108f7612d5b565b5b90600052602060002090600402016001016006858154811061091d5761091c612d5b565b5b90600052602060002090600402016002016006868154811061094257610941612d5b565b5b906000526020600020906004020160030182805461095f90612db9565b80601f016020809104026020016040519081016040528092919081815260200182805461098b90612db9565b80156109d85780601f106109ad576101008083540402835291602001916109d8565b820191906000526020600020905b8154815290600101906020018083116109bb57829003601f168201915b505050505092508180546109eb90612db9565b80601f0160208091040260200160405190810160405280929190818152602001828054610a1790612db9565b8015610a645780601f10610a3957610100808354040283529160200191610a64565b820191906000526020600020905b815481529060010190602001808311610a4757829003601f168201915b50505050509150808054610a7790612db9565b80601f0160208091040260200160405190810160405280929190818152602001828054610aa390612db9565b8015610af05780601f10610ac557610100808354040283529160200191610af0565b820191906000526020600020905b815481529060010190602001808311610ad357829003601f168201915b505050505090509250925092509193909250565b60006012905090565b60008060068054905067ffffffffffffffff811115610b2f57610b2e61264d565b5b604051908082528060200260200182016040528015610b6857816020015b610b556125f6565b815260200190600190039081610b4d5790505b509050600080600680549050811015610e3157848051906020012060068281548110610b9757610b96612d5b565b5b9060005260206000209060040201600101604051610bb59190612e8d565b604051809103902003610dfb5760068181548110610bd657610bd5612d5b565b5b906000526020600020906004020160405180608001604052908160008201548152602001600182018054610c0990612db9565b80601f0160208091040260200160405190810160405280929190818152602001828054610c3590612db9565b8015610c825780601f10610c5757610100808354040283529160200191610c82565b820191906000526020600020905b815481529060010190602001808311610c6557829003601f168201915b50505050508152602001600282018054610c9b90612db9565b80601f0160208091040260200160405190810160405280929190818152602001828054610cc790612db9565b8015610d145780601f10610ce957610100808354040283529160200191610d14565b820191906000526020600020905b815481529060010190602001808311610cf757829003601f168201915b50505050508152602001600382018054610d2d90612db9565b80601f0160208091040260200160405190810160405280929190818152602001828054610d5990612db9565b8015610da65780601f10610d7b57610100808354040283529160200191610da6565b820191906000526020600020905b815481529060010190602001808311610d8957829003601f168201915b505050505081525050838381518110610dc257610dc1612d5b565b5b60200260200101819052506001600560006101000a81548160ff0219169083151502179055508180610df390612ed3565b925050610e17565b6000600560006101000a81548160ff0219169083151502179055505b600560009054906101000a900460ff169350505050610ef8565b5060008167ffffffffffffffff811115610e4e57610e4d61264d565b5b604051908082528060200260200182016040528015610e8757816020015b610e746125f6565b815260200190600190039081610e6c5790505b50905060005b82811015610ee157838181518110610ea857610ea7612d5b565b5b6020026020010151828281518110610ec357610ec2612d5b565b5b60200260200101819052508080610ed990612ed3565b915050610e8d565b50600560009054906101000a900460ff1693505050505b919050565b600080610f08612054565b9050610f29818585610f1a8589611fcd565b610f249190612f1b565b61205c565b600191505092915050565b6000600680549050905060008060068054905067ffffffffffffffff811115610f6057610f5f61264d565b5b604051908082528060200260200182016040528015610f9957816020015b610f866125f6565b815260200190600190039081610f7e5790505b509050610fa586610b0d565b600560006101000a81548160ff021916908315150217905550610fc78661044c565b506110166040518060400160405280600681526020017f6578697374730000000000000000000000000000000000000000000000000000815250600560009054906101000a900460ff16612527565b7f36be3df2301241c9f4aa3834d554de4b32dd45511d200c56a0312912b993220733600560009054906101000a900460ff16604051611056929190612f5e565b60405180910390a1600560009054906101000a900460ff1615611096576001600560006101000a81548160ff0219169083151502179055505050506111e9565b6000600560006101000a81548160ff0219169083151502179055506006604051806080016040528085815260200188815260200187815260200186815250908060018154018082558091505060019003906000526020600020906004020160009091909190915060008201518160000155602082015181600101908161111c9190613133565b5060408201518160020190816111329190613133565b5060608201518160030190816111489190613133565b50505033600e600085815260200190815260200160002060006101000a81548173ffffffffffffffffffffffffffffffffffffffff021916908373ffffffffffffffffffffffffffffffffffffffff1602179055507f36be3df2301241c9f4aa3834d554de4b32dd45511d200c56a0312912b993220733600560009054906101000a900460ff166040516111dd929190612f5e565b60405180910390a15050505b505050565b60608060606006848154811061120757611206612d5b565b5b90600052602060002090600402016001016006858154811061122c5761122b612d5b565b5b90600052602060002090600402016002016006868154811061125157611250612d5b565b5b906000526020600020906004020160030182805461126e90612db9565b80601f016020809104026020016040519081016040528092919081815260200182805461129a90612db9565b80156112e75780601f106112bc576101008083540402835291602001916112e7565b820191906000526020600020905b8154815290600101906020018083116112ca57829003601f168201915b505050505092508180546112fa90612db9565b80601f016020809104026020016040519081016040528092919081815260200182805461132690612db9565b80156113735780601f1061134857610100808354040283529160200191611373565b820191906000526020600020905b81548152906001019060200180831161135657829003601f168201915b5050505050915080805461138690612db9565b80601f01602080910402602001604051908101604052809291908181526020018280546113b290612db9565b80156113ff5780601f106113d4576101008083540402835291602001916113ff565b820191906000526020600020905b8154815290600101906020018083116113e257829003601f168201915b505050505090509250925092509193909250565b60008060008373ffffffffffffffffffffffffffffffffffffffff1673ffffffffffffffffffffffffffffffffffffffff168152602001908152602001600020549050919050565b6060600060068054905067ffffffffffffffff81111561147e5761147d61264d565b5b6040519080825280602002602001820160405280156114b757816020015b6114a46125f6565b81526020019060019003908161149c5790505b5090506000805b6006805490508110156116f757600681815481106114df576114de612d5b565b5b90600052602060002090600402016040518060800160405290816000820154815260200160018201805461151290612db9565b80601f016020809104026020016040519081016040528092919081815260200182805461153e90612db9565b801561158b5780601f106115605761010080835404028352916020019161158b565b820191906000526020600020905b81548152906001019060200180831161156e57829003601f168201915b505050505081526020016002820180546115a490612db9565b80601f01602080910402602001604051908101604052809291908181526020018280546115d090612db9565b801561161d5780601f106115f25761010080835404028352916020019161161d565b820191906000526020600020905b81548152906001019060200180831161160057829003601f168201915b5050505050815260200160038201805461163690612db9565b80601f016020809104026020016040519081016040528092919081815260200182805461166290612db9565b80156116af5780601f10611684576101008083540402835291602001916116af565b820191906000526020600020905b81548152906001019060200180831161169257829003601f168201915b5050505050815250508383815181106116cb576116ca612d5b565b5b602002602001018190525081806116e190612ed3565b92505080806116ef90612ed3565b9150506114be565b5060008167ffffffffffffffff8111156117145761171361264d565b5b60405190808252806020026020018201604052801561174d57816020015b61173a6125f6565b8152602001906001900390816117325790505b50905060005b828110156117a75783818151811061176e5761176d612d5b565b5b602002602001015182828151811061178957611788612d5b565b5b6020026020010181905250808061179f90612ed3565b915050611753565b5080935050505090565b6060600480546117c090612db9565b80601f01602080910402602001604051908101604052809291908181526020018280546117ec90612db9565b80156118395780601f1061180e57610100808354040283529160200191611839565b820191906000526020600020905b81548152906001019060200180831161181c57829003601f168201915b5050505050905090565b6060600060068054905067ffffffffffffffff8111156118665761186561264d565b5b60405190808252806020026020018201604052801561189f57816020015b61188c6125f6565b8152602001906001900390816118845790505b5090506000806005856118b29190612f1b565b905060008590505b816006805490506006805490506118d19190613205565b6118db9190612f1b565b811015611b0e57600681815481106118f6576118f5612d5b565b5b90600052602060002090600402016040518060800160405290816000820154815260200160018201805461192990612db9565b80601f016020809104026020016040519081016040528092919081815260200182805461195590612db9565b80156119a25780601f10611977576101008083540402835291602001916119a2565b820191906000526020600020905b81548152906001019060200180831161198557829003601f168201915b505050505081526020016002820180546119bb90612db9565b80601f01602080910402602001604051908101604052809291908181526020018280546119e790612db9565b8015611a345780601f10611a0957610100808354040283529160200191611a34565b820191906000526020600020905b815481529060010190602001808311611a1757829003601f168201915b50505050508152602001600382018054611a4d90612db9565b80601f0160208091040260200160405190810160405280929190818152602001828054611a7990612db9565b8015611ac65780601f10611a9b57610100808354040283529160200191611ac6565b820191906000526020600020905b815481529060010190602001808311611aa957829003601f168201915b505050505081525050848481518110611ae257611ae1612d5b565b5b60200260200101819052508280611af890612ed3565b9350508080611b0690612ed3565b9150506118ba565b5060008267ffffffffffffffff811115611b2b57611b2a61264d565b5b604051908082528060200260200182016040528015611b6457816020015b611b516125f6565b815260200190600190039081611b495790505b50905060005b83811015611bbe57848181518110611b8557611b84612d5b565b5b6020026020010151828281518110611ba057611b9f612d5b565b5b60200260200101819052508080611bb690612ed3565b915050611b6a565b5080945050505050919050565b600080611bd6612054565b90506000611be48286611fcd565b905083811015611c29576040517f08c379a0000000000000000000000000000000000000000000000000000000008152600401611c20906132ab565b60405180910390fd5b611c36828686840361205c565b60019250505092915050565b600080611c4d612054565b9050611c5a8185856122b1565b600191505092915050565b6060600060068054905067ffffffffffffffff811115611c8857611c8761264d565b5b604051908082528060200260200182016040528015611cc157816020015b611cae6125f6565b815260200190600190039081611ca65790505b5090506000808481611cd39190612f1b565b905060008590505b6005811015611f105760068181548110611cf857611cf7612d5b565b5b906000526020600020906004020160405180608001604052908160008201548152602001600182018054611d2b90612db9565b80601f0160208091040260200160405190810160405280929190818152602001828054611d5790612db9565b8015611da45780601f10611d7957610100808354040283529160200191611da4565b820191906000526020600020905b815481529060010190602001808311611d8757829003601f168201915b50505050508152602001600282018054611dbd90612db9565b80601f0160208091040260200160405190810160405280929190818152602001828054611de990612db9565b8015611e365780601f10611e0b57610100808354040283529160200191611e36565b820191906000526020600020905b815481529060010190602001808311611e1957829003601f168201915b50505050508152602001600382018054611e4f90612db9565b80601f0160208091040260200160405190810160405280929190818152602001828054611e7b90612db9565b8015611ec85780601f10611e9d57610100808354040283529160200191611ec8565b820191906000526020600020905b815481529060010190602001808311611eab57829003601f168201915b505050505081525050848481518110611ee457611ee3612d5b565b5b60200260200101819052508280611efa90612ed3565b9350508080611f0890612ed3565b915050611cdb565b5060008267ffffffffffffffff811115611f2d57611f2c61264d565b5b604051908082528060200260200182016040528015611f6657816020015b611f536125f6565b815260200190600190039081611f4b5790505b50905060005b83811015611fc057848181518110611f8757611f86612d5b565b5b6020026020010151828281518110611fa257611fa1612d5b565b5b60200260200101819052508080611fb890612ed3565b915050611f6c565b5080945050505050919050565b6000600160008473ffffffffffffffffffffffffffffffffffffffff1673ffffffffffffffffffffffffffffffffffffffff16815260200190815260200160002060008373ffffffffffffffffffffffffffffffffffffffff1673ffffffffffffffffffffffffffffffffffffffff16815260200190815260200160002054905092915050565b600033905090565b600073ffffffffffffffffffffffffffffffffffffffff168373ffffffffffffffffffffffffffffffffffffffff16036120cb576040517f08c379a00000000000000000000000000000000000000000000000000000000081526004016120c29061333d565b60405180910390fd5b600073ffffffffffffffffffffffffffffffffffffffff168273ffffffffffffffffffffffffffffffffffffffff160361213a576040517f08c379a0000000000000000000000000000000000000000000000000000000008152600401612131906133cf565b60405180910390fd5b80600160008573ffffffffffffffffffffffffffffffffffffffff1673ffffffffffffffffffffffffffffffffffffffff16815260200190815260200160002060008473ffffffffffffffffffffffffffffffffffffffff1673ffffffffffffffffffffffffffffffffffffffff168152602001908152602001600020819055508173ffffffffffffffffffffffffffffffffffffffff168373ffffffffffffffffffffffffffffffffffffffff167f8c5be1e5ebec7d5bd14f71427d1e84f3dd0314c0f7b2291e5b200ac8c7c3b925836040516122189190612b29565b60405180910390a3505050565b60006122318484611fcd565b90507fffffffffffffffffffffffffffffffffffffffffffffffffffffffffffffffff81146122ab578181101561229d576040517f08c379a00000000000000000000000000000000000000000000000000000000081526004016122949061343b565b60405180910390fd5b6122aa848484840361205c565b5b50505050565b600073ffffffffffffffffffffffffffffffffffffffff168373ffffffffffffffffffffffffffffffffffffffff1603612320576040517f08c379a0000000000000000000000000000000000000000000000000000000008152600401612317906134cd565b60405180910390fd5b600073ffffffffffffffffffffffffffffffffffffffff168273ffffffffffffffffffffffffffffffffffffffff160361238f576040517f08c379a00000000000000000000000000000000000000000000000000000000081526004016123869061355f565b60405180910390fd5b61239a8383836125c3565b60008060008573ffffffffffffffffffffffffffffffffffffffff1673ffffffffffffffffffffffffffffffffffffffff16815260200190815260200160002054905081811015612420576040517f08c379a0000000000000000000000000000000000000000000000000000000008152600401612417906135f1565b60405180910390fd5b8181036000808673ffffffffffffffffffffffffffffffffffffffff1673ffffffffffffffffffffffffffffffffffffffff16815260200190815260200160002081905550816000808573ffffffffffffffffffffffffffffffffffffffff1673ffffffffffffffffffffffffffffffffffffffff168152602001908152602001600020600082825401925050819055508273ffffffffffffffffffffffffffffffffffffffff168473ffffffffffffffffffffffffffffffffffffffff167fddf252ad1be2c89b69c2b068fc378daa952ba7f163c4a11628f55a4df523b3ef8460405161250e9190612b29565b60405180910390a36125218484846125c8565b50505050565b6125bf828260405160240161253d929190613611565b6040516020818303038152906040527fc3b55635000000000000000000000000000000000000000000000000000000007bffffffffffffffffffffffffffffffffffffffffffffffffffffffff19166020820180517bffffffffffffffffffffffffffffffffffffffffffffffffffffffff83818316178352505050506125cd565b5050565b505050565b505050565b60008151905060006a636f6e736f6c652e6c6f679050602083016000808483855afa5050505050565b6040518060800160405280600081526020016060815260200160608152602001606081525090565b6000604051905090565b600080fd5b600080fd5b600080fd5b600080fd5b6000601f19601f8301169050919050565b7f4e487b7100000000000000000000000000000000000000000000000000000000600052604160045260246000fd5b6126858261263c565b810181811067ffffffffffffffff821117156126a4576126a361264d565b5b80604052505050565b60006126b761261e565b90506126c3828261267c565b919050565b600067ffffffffffffffff8211156126e3576126e261264d565b5b6126ec8261263c565b9050602081019050919050565b82818337600083830152505050565b600061271b612716846126c8565b6126ad565b90508281526020810184848401111561273757612736612637565b5b6127428482856126f9565b509392505050565b600082601f83011261275f5761275e612632565b5b813561276f848260208601612708565b91505092915050565b60006020828403121561278e5761278d612628565b5b600082013567ffffffffffffffff8111156127ac576127ab61262d565b5b6127b88482850161274a565b91505092915050565b600081519050919050565b600082825260208201905092915050565b6000819050602082019050919050565b6000819050919050565b612800816127ed565b82525050565b600081519050919050565b600082825260208201905092915050565b60005b83811015612840578082015181840152602081019050612825565b60008484015250505050565b600061285782612806565b6128618185612811565b9350612871818560208601612822565b61287a8161263c565b840191505092915050565b600060808301600083015161289d60008601826127f7565b50602083015184820360208601526128b5828261284c565b915050604083015184820360408601526128cf828261284c565b915050606083015184820360608601526128e9828261284c565b9150508091505092915050565b60006129028383612885565b905092915050565b6000602082019050919050565b6000612922826127c1565b61292c81856127cc565b93508360208202850161293e856127dd565b8060005b8581101561297a578484038952815161295b85826128f6565b94506129668361290a565b925060208a01995050600181019050612942565b50829750879550505050505092915050565b600060208201905081810360008301526129a68184612917565b905092915050565b600082825260208201905092915050565b60006129ca82612806565b6129d481856129ae565b93506129e4818560208601612822565b6129ed8161263c565b840191505092915050565b60006020820190508181036000830152612a1281846129bf565b905092915050565b600073ffffffffffffffffffffffffffffffffffffffff82169050919050565b6000612a4582612a1a565b9050919050565b612a5581612a3a565b8114612a6057600080fd5b50565b600081359050612a7281612a4c565b92915050565b612a81816127ed565b8114612a8c57600080fd5b50565b600081359050612a9e81612a78565b92915050565b60008060408385031215612abb57612aba612628565b5b6000612ac985828601612a63565b9250506020612ada85828601612a8f565b9150509250929050565b60008115159050919050565b612af981612ae4565b82525050565b6000602082019050612b146000830184612af0565b92915050565b612b23816127ed565b82525050565b6000602082019050612b3e6000830184612b1a565b92915050565b600080600060608486031215612b5d57612b5c612628565b5b6000612b6b86828701612a63565b9350506020612b7c86828701612a63565b9250506040612b8d86828701612a8f565b9150509250925092565b600060208284031215612bad57612bac612628565b5b6000612bbb84828501612a8f565b91505092915050565b60006060820190508181036000830152612bde81866129bf565b90508181036020830152612bf281856129bf565b90508181036040830152612c0681846129bf565b9050949350505050565b600060ff82169050919050565b612c2681612c10565b82525050565b6000602082019050612c416000830184612c1d565b92915050565b600080600060608486031215612c6057612c5f612628565b5b600084013567ffffffffffffffff811115612c7e57612c7d61262d565b5b612c8a8682870161274a565b935050602084013567ffffffffffffffff811115612cab57612caa61262d565b5b612cb78682870161274a565b925050604084013567ffffffffffffffff811115612cd857612cd761262d565b5b612ce48682870161274a565b9150509250925092565b600060208284031215612d0457612d03612628565b5b6000612d1284828501612a63565b91505092915050565b60008060408385031215612d3257612d31612628565b5b6000612d4085828601612a63565b9250506020612d5185828601612a63565b9150509250929050565b7f4e487b7100000000000000000000000000000000000000000000000000000000600052603260045260246000fd5b7f4e487b7100000000000000000000000000000000000000000000000000000000600052602260045260246000fd5b60006002820490506001821680612dd157607f821691505b602082108103612de457612de3612d8a565b5b50919050565b600081905092915050565b60008190508160005260206000209050919050565b60008154612e1781612db9565b612e218186612dea565b94506001821660008114612e3c5760018114612e5157612e84565b60ff1983168652811515820286019350612e84565b612e5a85612df5565b60005b83811015612e7c57815481890152600182019150602081019050612e5d565b838801955050505b50505092915050565b6000612e998284612e0a565b915081905092915050565b7f4e487b7100000000000000000000000000000000000000000000000000000000600052601160045260246000fd5b6000612ede826127ed565b91507fffffffffffffffffffffffffffffffffffffffffffffffffffffffffffffffff8203612f1057612f0f612ea4565b5b600182019050919050565b6000612f26826127ed565b9150612f31836127ed565b9250828201905080821115612f4957612f48612ea4565b5b92915050565b612f5881612a3a565b82525050565b6000604082019050612f736000830185612f4f565b612f806020830184612af0565b9392505050565b60008190508160005260206000209050919050565b60006020601f8301049050919050565b600082821b905092915050565b600060088302612fe97fffffffffffffffffffffffffffffffffffffffffffffffffffffffffffffffff82612fac565b612ff38683612fac565b95508019841693508086168417925050509392505050565b6000819050919050565b600061303061302b613026846127ed565b61300b565b6127ed565b9050919050565b6000819050919050565b61304a83613015565b61305e61305682613037565b848454612fb9565b825550505050565b600090565b613073613066565b61307e818484613041565b505050565b5b818110156130a25761309760008261306b565b600181019050613084565b5050565b601f8211156130e7576130b881612f87565b6130c184612f9c565b810160208510156130d0578190505b6130e46130dc85612f9c565b830182613083565b50505b505050565b600082821c905092915050565b600061310a600019846008026130ec565b1980831691505092915050565b600061312383836130f9565b9150826002028217905092915050565b61313c82612806565b67ffffffffffffffff8111156131555761315461264d565b5b61315f8254612db9565b61316a8282856130a6565b600060209050601f83116001811461319d576000841561318b578287015190505b6131958582613117565b8655506131fd565b601f1984166131ab86612f87565b60005b828110156131d3578489015182556001820191506020850194506020810190506131ae565b868310156131f057848901516131ec601f8916826130f9565b8355505b6001600288020188555050505b505050505050565b6000613210826127ed565b915061321b836127ed565b925082820390508181111561323357613232612ea4565b5b92915050565b7f45524332303a2064656372656173656420616c6c6f77616e63652062656c6f7760008201527f207a65726f000000000000000000000000000000000000000000000000000000602082015250565b60006132956025836129ae565b91506132a082613239565b604082019050919050565b600060208201905081810360008301526132c481613288565b9050919050565b7f45524332303a20617070726f76652066726f6d20746865207a65726f2061646460008201527f7265737300000000000000000000000000000000000000000000000000000000602082015250565b60006133276024836129ae565b9150613332826132cb565b604082019050919050565b600060208201905081810360008301526133568161331a565b9050919050565b7f45524332303a20617070726f766520746f20746865207a65726f20616464726560008201527f7373000000000000000000000000000000000000000000000000000000000000602082015250565b60006133b96022836129ae565b91506133c48261335d565b604082019050919050565b600060208201905081810360008301526133e8816133ac565b9050919050565b7f45524332303a20696e73756666696369656e7420616c6c6f77616e6365000000600082015250565b6000613425601d836129ae565b9150613430826133ef565b602082019050919050565b6000602082019050818103600083015261345481613418565b9050919050565b7f45524332303a207472616e736665722066726f6d20746865207a65726f20616460008201527f6472657373000000000000000000000000000000000000000000000000000000602082015250565b60006134b76025836129ae565b91506134c28261345b565b604082019050919050565b600060208201905081810360008301526134e6816134aa565b9050919050565b7f45524332303a207472616e7366657220746f20746865207a65726f206164647260008201527f6573730000000000000000000000000000000000000000000000000000000000602082015250565b60006135496023836129ae565b9150613554826134ed565b604082019050919050565b600060208201905081810360008301526135788161353c565b9050919050565b7f45524332303a207472616e7366657220616d6f756e742065786365656473206260008201527f616c616e63650000000000000000000000000000000000000000000000000000602082015250565b60006135db6026836129ae565b91506135e68261357f565b604082019050919050565b6000602082019050818103600083015261360a816135ce565b9050919050565b6000604082019050818103600083015261362b81856129bf565b905061363a6020830184612af0565b939250505056fea2646970667358221220d29948ea33d6761af8b5c5dc58e395963a4401f9ffb953e685ac74620de2f72764736f6c63430008110033",
  "linkReferences": {},
  "deployedLinkReferences": {}
}