{
  "_format": "hh-sol-artifact-1",
  "contractName": "EWordEngContractttt",
  "sourceName": "contracts/EWordEngContractttt.sol",
  "abi": [
    {
      "inputs": [],
      "stateMutability": "nonpayable",
      "type": "constructor"
    },
    {
      "anonymous": false,
      "inputs": [
        {
          "indexed": false,
          "internalType": "uint256",
          "name": "wordId",
          "type": "uint256"
        },
        {
          "indexed": false,
          "internalType": "string",
          "name": "engword",
          "type": "string"
        },
        {
          "indexed": false,
          "internalType": "string",
          "name": "engword_pronounciation",
          "type": "string"
        },
        {
          "indexed": false,
          "internalType": "string",
          "name": "eword_explained",
          "type": "string"
        }
      ],
      "name": "AddWord",
      "type": "event"
    },
    {
      "anonymous": false,
      "inputs": [
        {
          "indexed": true,
          "internalType": "address",
          "name": "owner",
          "type": "address"
        },
        {
          "indexed": true,
          "internalType": "address",
          "name": "spender",
          "type": "address"
        },
        {
          "indexed": false,
          "internalType": "uint256",
          "name": "value",
          "type": "uint256"
        }
      ],
      "name": "Approval",
      "type": "event"
    },
    {
      "anonymous": false,
      "inputs": [
        {
          "indexed": true,
          "internalType": "address",
          "name": "from",
          "type": "address"
        },
        {
          "indexed": true,
          "internalType": "address",
          "name": "to",
          "type": "address"
        },
        {
          "indexed": false,
          "internalType": "uint256",
          "name": "value",
          "type": "uint256"
        }
      ],
      "name": "Transfer",
      "type": "event"
    },
    {
      "inputs": [
        {
          "internalType": "string",
          "name": "engword",
          "type": "string"
        },
        {
          "internalType": "string",
          "name": "engword_pronounciation",
          "type": "string"
        },
        {
          "internalType": "string",
          "name": "engword_explained",
          "type": "string"
        }
      ],
      "name": "addEWord",
      "outputs": [],
      "stateMutability": "nonpayable",
      "type": "function"
    },
    {
      "inputs": [
        {
          "internalType": "address",
          "name": "owner",
          "type": "address"
        },
        {
          "internalType": "address",
          "name": "spender",
          "type": "address"
        }
      ],
      "name": "allowance",
      "outputs": [
        {
          "internalType": "uint256",
          "name": "",
          "type": "uint256"
        }
      ],
      "stateMutability": "view",
      "type": "function"
    },
    {
      "inputs": [
        {
          "internalType": "address",
          "name": "spender",
          "type": "address"
        },
        {
          "internalType": "uint256",
          "name": "amount",
          "type": "uint256"
        }
      ],
      "name": "approve",
      "outputs": [
        {
          "internalType": "bool",
          "name": "",
          "type": "bool"
        }
      ],
      "stateMutability": "nonpayable",
      "type": "function"
    },
    {
      "inputs": [
        {
          "internalType": "address",
          "name": "account",
          "type": "address"
        }
      ],
      "name": "balanceOf",
      "outputs": [
        {
          "internalType": "uint256",
          "name": "",
          "type": "uint256"
        }
      ],
      "stateMutability": "view",
      "type": "function"
    },
    {
      "inputs": [],
      "name": "decimals",
      "outputs": [
        {
          "internalType": "uint8",
          "name": "",
          "type": "uint8"
        }
      ],
      "stateMutability": "view",
      "type": "function"
    },
    {
      "inputs": [
        {
          "internalType": "address",
          "name": "spender",
          "type": "address"
        },
        {
          "internalType": "uint256",
          "name": "subtractedValue",
          "type": "uint256"
        }
      ],
      "name": "decreaseAllowance",
      "outputs": [
        {
          "internalType": "bool",
          "name": "",
          "type": "bool"
        }
      ],
      "stateMutability": "nonpayable",
      "type": "function"
    },
    {
      "inputs": [
        {
          "internalType": "uint256",
          "name": "wordid",
          "type": "uint256"
        }
      ],
      "name": "getAddedEngWordEngExplainedAndPronounciation",
      "outputs": [
        {
          "internalType": "string",
          "name": "",
          "type": "string"
        },
        {
          "internalType": "string",
          "name": "",
          "type": "string"
        },
        {
          "internalType": "string",
          "name": "",
          "type": "string"
        }
      ],
      "stateMutability": "view",
      "type": "function"
    },
    {
      "inputs": [],
      "name": "getEWords",
      "outputs": [
        {
          "components": [
            {
              "internalType": "uint256",
              "name": "id",
              "type": "uint256"
            },
            {
              "internalType": "string",
              "name": "engword",
              "type": "string"
            },
            {
              "internalType": "string",
              "name": "engword_pronounciation",
              "type": "string"
            },
            {
              "internalType": "string",
              "name": "engword_explained",
              "type": "string"
            }
          ],
          "internalType": "struct EWordEngContractttt.EWord[]",
          "name": "",
          "type": "tuple[]"
        }
      ],
      "stateMutability": "view",
      "type": "function"
    },
    {
      "inputs": [
        {
          "internalType": "uint256",
          "name": "wordid",
          "type": "uint256"
        }
      ],
      "name": "getEWords1",
      "outputs": [
        {
          "components": [
            {
              "internalType": "uint256",
              "name": "id",
              "type": "uint256"
            },
            {
              "internalType": "string",
              "name": "engword",
              "type": "string"
            },
            {
              "internalType": "string",
              "name": "engword_pronounciation",
              "type": "string"
            },
            {
              "internalType": "string",
              "name": "engword_explained",
              "type": "string"
            }
          ],
          "internalType": "struct EWordEngContractttt.EWord[]",
          "name": "",
          "type": "tuple[]"
        }
      ],
      "stateMutability": "view",
      "type": "function"
    },
    {
      "inputs": [
        {
          "internalType": "uint256",
          "name": "wordid",
          "type": "uint256"
        }
      ],
      "name": "getEngWordEngExplainedAndPronounciation",
      "outputs": [
        {
          "internalType": "string",
          "name": "",
          "type": "string"
        },
        {
          "internalType": "string",
          "name": "",
          "type": "string"
        },
        {
          "internalType": "string",
          "name": "",
          "type": "string"
        }
      ],
      "stateMutability": "view",
      "type": "function"
    },
    {
      "inputs": [
        {
          "internalType": "uint256",
          "name": "wordid",
          "type": "uint256"
        }
      ],
      "name": "getListOfFiveWords",
      "outputs": [
        {
          "components": [
            {
              "internalType": "uint256",
              "name": "id",
              "type": "uint256"
            },
            {
              "internalType": "string",
              "name": "engword",
              "type": "string"
            },
            {
              "internalType": "string",
              "name": "engword_pronounciation",
              "type": "string"
            },
            {
              "internalType": "string",
              "name": "engword_explained",
              "type": "string"
            }
          ],
          "internalType": "struct EWordEngContractttt.EWord[]",
          "name": "",
          "type": "tuple[]"
        }
      ],
      "stateMutability": "view",
      "type": "function"
    },
    {
      "inputs": [
        {
          "internalType": "address",
          "name": "spender",
          "type": "address"
        },
        {
          "internalType": "uint256",
          "name": "addedValue",
          "type": "uint256"
        }
      ],
      "name": "increaseAllowance",
      "outputs": [
        {
          "internalType": "bool",
          "name": "",
          "type": "bool"
        }
      ],
      "stateMutability": "nonpayable",
      "type": "function"
    },
    {
      "inputs": [],
      "name": "name",
      "outputs": [
        {
          "internalType": "string",
          "name": "",
          "type": "string"
        }
      ],
      "stateMutability": "view",
      "type": "function"
    },
    {
      "inputs": [],
      "name": "symbol",
      "outputs": [
        {
          "internalType": "string",
          "name": "",
          "type": "string"
        }
      ],
      "stateMutability": "view",
      "type": "function"
    },
    {
      "inputs": [],
      "name": "totalSupply",
      "outputs": [
        {
          "internalType": "uint256",
          "name": "",
          "type": "uint256"
        }
      ],
      "stateMutability": "view",
      "type": "function"
    },
    {
      "inputs": [
        {
          "internalType": "address",
          "name": "to",
          "type": "address"
        },
        {
          "internalType": "uint256",
          "name": "amount",
          "type": "uint256"
        }
      ],
      "name": "transfer",
      "outputs": [
        {
          "internalType": "bool",
          "name": "",
          "type": "bool"
        }
      ],
      "stateMutability": "nonpayable",
      "type": "function"
    },
    {
      "inputs": [
        {
          "internalType": "address",
          "name": "from",
          "type": "address"
        },
        {
          "internalType": "address",
          "name": "to",
          "type": "address"
        },
        {
          "internalType": "uint256",
          "name": "amount",
          "type": "uint256"
        }
      ],
      "name": "transferFrom",
      "outputs": [
        {
          "internalType": "bool",
          "name": "",
          "type": "bool"
        }
      ],
      "stateMutability": "nonpayable",
      "type": "function"
    },
    {
      "inputs": [
        {
          "internalType": "string",
          "name": "engword",
          "type": "string"
        }
      ],
      "name": "whetherEwordExists",
      "outputs": [
        {
          "internalType": "bool",
          "name": "",
          "type": "bool"
        }
      ],
      "stateMutability": "view",
      "type": "function"
    }
  ],
  "bytecode": "0x60806040523480156200001157600080fd5b5060405180602001604052806000815250604051806020016040528060008152508160039081620000439190620002d8565b508060049081620000559190620002d8565b505050620003bf565b600081519050919050565b7f4e487b7100000000000000000000000000000000000000000000000000000000600052604160045260246000fd5b7f4e487b7100000000000000000000000000000000000000000000000000000000600052602260045260246000fd5b60006002820490506001821680620000e057607f821691505b602082108103620000f657620000f562000098565b5b50919050565b60008190508160005260206000209050919050565b60006020601f8301049050919050565b600082821b905092915050565b600060088302620001607fffffffffffffffffffffffffffffffffffffffffffffffffffffffffffffffff8262000121565b6200016c868362000121565b95508019841693508086168417925050509392505050565b6000819050919050565b6000819050919050565b6000620001b9620001b3620001ad8462000184565b6200018e565b62000184565b9050919050565b6000819050919050565b620001d58362000198565b620001ed620001e482620001c0565b8484546200012e565b825550505050565b600090565b62000204620001f5565b62000211818484620001ca565b505050565b5b8181101562000239576200022d600082620001fa565b60018101905062000217565b5050565b601f82111562000288576200025281620000fc565b6200025d8462000111565b810160208510156200026d578190505b620002856200027c8562000111565b83018262000216565b50505b505050565b600082821c905092915050565b6000620002ad600019846008026200028d565b1980831691505092915050565b6000620002c883836200029a565b9150826002028217905092915050565b620002e3826200005e565b67ffffffffffffffff811115620002ff57620002fe62000069565b5b6200030b8254620000c7565b620003188282856200023d565b600060209050601f8311600181146200035057600084156200033b578287015190505b620003478582620002ba565b865550620003b7565b601f1984166200036086620000fc565b60005b828110156200038a5784890151825560018201915060208501945060208101905062000363565b86831015620003aa5784890151620003a6601f8916826200029a565b8355505b6001600288020188555050505b505050505050565b612e9c80620003cf6000396000f3fe608060405234801561001057600080fd5b50600436106101165760003560e01c806370a08231116100a2578063a457c2d711610071578063a457c2d714610321578063a9059cbb14610351578063d84de2bb14610381578063dd62ed3e146103b1578063ddd694f2146103e157610116565b806370a082311461028557806376f18958146102b557806395d89b41146102d35780639d72e6bf146102f157610116565b806325ab7114116100e957806325ab7114146101b7578063313ce567146101e9578063395093511461020757806349d926b914610237578063619e54ea1461025357610116565b806306fdde031461011b578063095ea7b31461013957806318160ddd1461016957806323b872dd14610187575b600080fd5b610123610411565b6040516101309190611d90565b60405180910390f35b610153600480360381019061014e9190611e5a565b6104a3565b6040516101609190611eb5565b60405180910390f35b6101716104c6565b60405161017e9190611edf565b60405180910390f35b6101a1600480360381019061019c9190611efa565b6104d0565b6040516101ae9190611eb5565b60405180910390f35b6101d160048036038101906101cc9190611f4d565b6104ff565b6040516101e093929190611f7a565b60405180910390f35b6101f1610724565b6040516101fe9190611fe2565b60405180910390f35b610221600480360381019061021c9190611e5a565b61072d565b60405161022e9190611eb5565b60405180910390f35b610251600480360381019061024c9190612132565b610764565b005b61026d60048036038101906102689190611f4d565b61088c565b60405161027c93929190611f7a565b60405180910390f35b61029f600480360381019061029a91906121d9565b610ab1565b6040516102ac9190611edf565b60405180910390f35b6102bd610af9565b6040516102ca9190612392565b60405180910390f35b6102db610e4f565b6040516102e89190611d90565b60405180910390f35b61030b60048036038101906103069190611f4d565b610ee1565b6040516103189190612392565b60405180910390f35b61033b60048036038101906103369190611e5a565b611269565b6040516103489190611eb5565b60405180910390f35b61036b60048036038101906103669190611e5a565b6112e0565b6040516103789190611eb5565b60405180910390f35b61039b60048036038101906103969190611f4d565b611303565b6040516103a89190612392565b60405180910390f35b6103cb60048036038101906103c691906123b4565b61166b565b6040516103d89190611edf565b60405180910390f35b6103fb60048036038101906103f691906123f4565b6116f2565b6040516104089190611eb5565b60405180910390f35b6060600380546104209061246c565b80601f016020809104026020016040519081016040528092919081815260200182805461044c9061246c565b80156104995780601f1061046e57610100808354040283529160200191610499565b820191906000526020600020905b81548152906001019060200180831161047c57829003601f168201915b5050505050905090565b6000806104ae6117d7565b90506104bb8185856117df565b600191505092915050565b6000600254905090565b6000806104db6117d7565b90506104e88582856119a8565b6104f3858585611a34565b60019150509392505050565b6060806060600684815481106105185761051761249d565b5b90600052602060002090600402016001016006858154811061053d5761053c61249d565b5b9060005260206000209060040201600201600686815481106105625761056161249d565b5b906000526020600020906004020160030182805461057f9061246c565b80601f01602080910402602001604051908101604052809291908181526020018280546105ab9061246c565b80156105f85780601f106105cd576101008083540402835291602001916105f8565b820191906000526020600020905b8154815290600101906020018083116105db57829003601f168201915b5050505050925081805461060b9061246c565b80601f01602080910402602001604051908101604052809291908181526020018280546106379061246c565b80156106845780601f1061065957610100808354040283529160200191610684565b820191906000526020600020905b81548152906001019060200180831161066757829003601f168201915b505050505091508080546106979061246c565b80601f01602080910402602001604051908101604052809291908181526020018280546106c39061246c565b80156107105780601f106106e557610100808354040283529160200191610710565b820191906000526020600020905b8154815290600101906020018083116106f357829003601f168201915b505050505090509250925092509193909250565b60006012905090565b6000806107386117d7565b905061075981858561074a858961166b565b61075491906124fb565b6117df565b600191505092915050565b600060068054905090506107786005611caa565b60006107846005611cc0565b90506000600f60008381526020019081526020016000209050818160000181905550858160010190816107b791906126db565b50848160020190816107c991906126db565b50838160030190816107db91906126db565b50806010876040516107ed91906127e9565b908152602001604051809103902060008201548160000155600182018160010190816108199190612816565b506002820181600201908161082e9190612816565b50600382018160030190816108439190612816565b509050507fce0a6322b276d42aa8c8a6701b53f0e1944b778084e52e2c3b892fcd72017c3e8387878760405161087c94939291906128fe565b60405180910390a1505050505050565b6060806060600684815481106108a5576108a461249d565b5b9060005260206000209060040201600101600685815481106108ca576108c961249d565b5b9060005260206000209060040201600201600686815481106108ef576108ee61249d565b5b906000526020600020906004020160030182805461090c9061246c565b80601f01602080910402602001604051908101604052809291908181526020018280546109389061246c565b80156109855780601f1061095a57610100808354040283529160200191610985565b820191906000526020600020905b81548152906001019060200180831161096857829003601f168201915b505050505092508180546109989061246c565b80601f01602080910402602001604051908101604052809291908181526020018280546109c49061246c565b8015610a115780601f106109e657610100808354040283529160200191610a11565b820191906000526020600020905b8154815290600101906020018083116109f457829003601f168201915b50505050509150808054610a249061246c565b80601f0160208091040260200160405190810160405280929190818152602001828054610a509061246c565b8015610a9d5780601f10610a7257610100808354040283529160200191610a9d565b820191906000526020600020905b815481529060010190602001808311610a8057829003601f168201915b505050505090509250925092509193909250565b60008060008373ffffffffffffffffffffffffffffffffffffffff1673ffffffffffffffffffffffffffffffffffffffff168152602001908152602001600020549050919050565b6060600060068054905067ffffffffffffffff811115610b1c57610b1b612007565b5b604051908082528060200260200182016040528015610b5557816020015b610b42611cd8565b815260200190600190039081610b3a5790505b5090506000805b600680549050811015610d955760068181548110610b7d57610b7c61249d565b5b906000526020600020906004020160405180608001604052908160008201548152602001600182018054610bb09061246c565b80601f0160208091040260200160405190810160405280929190818152602001828054610bdc9061246c565b8015610c295780601f10610bfe57610100808354040283529160200191610c29565b820191906000526020600020905b815481529060010190602001808311610c0c57829003601f168201915b50505050508152602001600282018054610c429061246c565b80601f0160208091040260200160405190810160405280929190818152602001828054610c6e9061246c565b8015610cbb5780601f10610c9057610100808354040283529160200191610cbb565b820191906000526020600020905b815481529060010190602001808311610c9e57829003601f168201915b50505050508152602001600382018054610cd49061246c565b80601f0160208091040260200160405190810160405280929190818152602001828054610d009061246c565b8015610d4d5780601f10610d2257610100808354040283529160200191610d4d565b820191906000526020600020905b815481529060010190602001808311610d3057829003601f168201915b505050505081525050838381518110610d6957610d6861249d565b5b60200260200101819052508180610d7f90612958565b9250508080610d8d90612958565b915050610b5c565b5060008167ffffffffffffffff811115610db257610db1612007565b5b604051908082528060200260200182016040528015610deb57816020015b610dd8611cd8565b815260200190600190039081610dd05790505b50905060005b82811015610e4557838181518110610e0c57610e0b61249d565b5b6020026020010151828281518110610e2757610e2661249d565b5b60200260200101819052508080610e3d90612958565b915050610df1565b5080935050505090565b606060048054610e5e9061246c565b80601f0160208091040260200160405190810160405280929190818152602001828054610e8a9061246c565b8015610ed75780601f10610eac57610100808354040283529160200191610ed7565b820191906000526020600020905b815481529060010190602001808311610eba57829003601f168201915b5050505050905090565b6060600060068054905067ffffffffffffffff811115610f0457610f03612007565b5b604051908082528060200260200182016040528015610f3d57816020015b610f2a611cd8565b815260200190600190039081610f225790505b509050600080600585610f5091906124fb565b905060008590505b81600680549050600680549050610f6f91906129a0565b610f7991906124fb565b8110156111ac5760068181548110610f9457610f9361249d565b5b906000526020600020906004020160405180608001604052908160008201548152602001600182018054610fc79061246c565b80601f0160208091040260200160405190810160405280929190818152602001828054610ff39061246c565b80156110405780601f1061101557610100808354040283529160200191611040565b820191906000526020600020905b81548152906001019060200180831161102357829003601f168201915b505050505081526020016002820180546110599061246c565b80601f01602080910402602001604051908101604052809291908181526020018280546110859061246c565b80156110d25780601f106110a7576101008083540402835291602001916110d2565b820191906000526020600020905b8154815290600101906020018083116110b557829003601f168201915b505050505081526020016003820180546110eb9061246c565b80601f01602080910402602001604051908101604052809291908181526020018280546111179061246c565b80156111645780601f1061113957610100808354040283529160200191611164565b820191906000526020600020905b81548152906001019060200180831161114757829003601f168201915b5050505050815250508484815181106111805761117f61249d565b5b6020026020010181905250828061119690612958565b93505080806111a490612958565b915050610f58565b5060008267ffffffffffffffff8111156111c9576111c8612007565b5b60405190808252806020026020018201604052801561120257816020015b6111ef611cd8565b8152602001906001900390816111e75790505b50905060005b8381101561125c578481815181106112235761122261249d565b5b602002602001015182828151811061123e5761123d61249d565b5b6020026020010181905250808061125490612958565b915050611208565b5080945050505050919050565b6000806112746117d7565b90506000611282828661166b565b9050838110156112c7576040517f08c379a00000000000000000000000000000000000000000000000000000000081526004016112be90612a46565b60405180910390fd5b6112d482868684036117df565b60019250505092915050565b6000806112eb6117d7565b90506112f8818585611a34565b600191505092915050565b6060600060068054905067ffffffffffffffff81111561132657611325612007565b5b60405190808252806020026020018201604052801561135f57816020015b61134c611cd8565b8152602001906001900390816113445790505b509050600080848161137191906124fb565b905060008590505b60058110156115ae57600681815481106113965761139561249d565b5b9060005260206000209060040201604051806080016040529081600082015481526020016001820180546113c99061246c565b80601f01602080910402602001604051908101604052809291908181526020018280546113f59061246c565b80156114425780601f1061141757610100808354040283529160200191611442565b820191906000526020600020905b81548152906001019060200180831161142557829003601f168201915b5050505050815260200160028201805461145b9061246c565b80601f01602080910402602001604051908101604052809291908181526020018280546114879061246c565b80156114d45780601f106114a9576101008083540402835291602001916114d4565b820191906000526020600020905b8154815290600101906020018083116114b757829003601f168201915b505050505081526020016003820180546114ed9061246c565b80601f01602080910402602001604051908101604052809291908181526020018280546115199061246c565b80156115665780601f1061153b57610100808354040283529160200191611566565b820191906000526020600020905b81548152906001019060200180831161154957829003601f168201915b5050505050815250508484815181106115825761158161249d565b5b6020026020010181905250828061159890612958565b93505080806115a690612958565b915050611379565b5060008267ffffffffffffffff8111156115cb576115ca612007565b5b60405190808252806020026020018201604052801561160457816020015b6115f1611cd8565b8152602001906001900390816115e95790505b50905060005b8381101561165e578481815181106116255761162461249d565b5b60200260200101518282815181106116405761163f61249d565b5b6020026020010181905250808061165690612958565b91505061160a565b5080945050505050919050565b6000600160008473ffffffffffffffffffffffffffffffffffffffff1673ffffffffffffffffffffffffffffffffffffffff16815260200190815260200160002060008373ffffffffffffffffffffffffffffffffffffffff1673ffffffffffffffffffffffffffffffffffffffff16815260200190815260200160002054905092915050565b60008060068054905067ffffffffffffffff81111561171457611713612007565b5b60405190808252806020026020018201604052801561174d57816020015b61173a611cd8565b8152602001906001900390816117325790505b50905060008060005b6006805490508110156117cb5785805190602001206006828154811061177f5761177e61249d565b5b906000526020600020906004020160010160405161179d9190612b09565b6040518091039020036117b357600191506117b8565b600091505b80806117c390612958565b915050611756565b50809350505050919050565b600033905090565b600073ffffffffffffffffffffffffffffffffffffffff168373ffffffffffffffffffffffffffffffffffffffff160361184e576040517f08c379a000000000000000000000000000000000000000000000000000000000815260040161184590612b92565b60405180910390fd5b600073ffffffffffffffffffffffffffffffffffffffff168273ffffffffffffffffffffffffffffffffffffffff16036118bd576040517f08c379a00000000000000000000000000000000000000000000000000000000081526004016118b490612c24565b60405180910390fd5b80600160008573ffffffffffffffffffffffffffffffffffffffff1673ffffffffffffffffffffffffffffffffffffffff16815260200190815260200160002060008473ffffffffffffffffffffffffffffffffffffffff1673ffffffffffffffffffffffffffffffffffffffff168152602001908152602001600020819055508173ffffffffffffffffffffffffffffffffffffffff168373ffffffffffffffffffffffffffffffffffffffff167f8c5be1e5ebec7d5bd14f71427d1e84f3dd0314c0f7b2291e5b200ac8c7c3b9258360405161199b9190611edf565b60405180910390a3505050565b60006119b4848461166b565b90507fffffffffffffffffffffffffffffffffffffffffffffffffffffffffffffffff8114611a2e5781811015611a20576040517f08c379a0000000000000000000000000000000000000000000000000000000008152600401611a1790612c90565b60405180910390fd5b611a2d84848484036117df565b5b50505050565b600073ffffffffffffffffffffffffffffffffffffffff168373ffffffffffffffffffffffffffffffffffffffff1603611aa3576040517f08c379a0000000000000000000000000000000000000000000000000000000008152600401611a9a90612d22565b60405180910390fd5b600073ffffffffffffffffffffffffffffffffffffffff168273ffffffffffffffffffffffffffffffffffffffff1603611b12576040517f08c379a0000000000000000000000000000000000000000000000000000000008152600401611b0990612db4565b60405180910390fd5b611b1d838383611cce565b60008060008573ffffffffffffffffffffffffffffffffffffffff1673ffffffffffffffffffffffffffffffffffffffff16815260200190815260200160002054905081811015611ba3576040517f08c379a0000000000000000000000000000000000000000000000000000000008152600401611b9a90612e46565b60405180910390fd5b8181036000808673ffffffffffffffffffffffffffffffffffffffff1673ffffffffffffffffffffffffffffffffffffffff16815260200190815260200160002081905550816000808573ffffffffffffffffffffffffffffffffffffffff1673ffffffffffffffffffffffffffffffffffffffff168152602001908152602001600020600082825401925050819055508273ffffffffffffffffffffffffffffffffffffffff168473ffffffffffffffffffffffffffffffffffffffff167fddf252ad1be2c89b69c2b068fc378daa952ba7f163c4a11628f55a4df523b3ef84604051611c919190611edf565b60405180910390a3611ca4848484611cd3565b50505050565b6001816000016000828254019250508190555050565b600081600001549050919050565b505050565b505050565b6040518060800160405280600081526020016060815260200160608152602001606081525090565b600081519050919050565b600082825260208201905092915050565b60005b83811015611d3a578082015181840152602081019050611d1f565b60008484015250505050565b6000601f19601f8301169050919050565b6000611d6282611d00565b611d6c8185611d0b565b9350611d7c818560208601611d1c565b611d8581611d46565b840191505092915050565b60006020820190508181036000830152611daa8184611d57565b905092915050565b6000604051905090565b600080fd5b600080fd5b600073ffffffffffffffffffffffffffffffffffffffff82169050919050565b6000611df182611dc6565b9050919050565b611e0181611de6565b8114611e0c57600080fd5b50565b600081359050611e1e81611df8565b92915050565b6000819050919050565b611e3781611e24565b8114611e4257600080fd5b50565b600081359050611e5481611e2e565b92915050565b60008060408385031215611e7157611e70611dbc565b5b6000611e7f85828601611e0f565b9250506020611e9085828601611e45565b9150509250929050565b60008115159050919050565b611eaf81611e9a565b82525050565b6000602082019050611eca6000830184611ea6565b92915050565b611ed981611e24565b82525050565b6000602082019050611ef46000830184611ed0565b92915050565b600080600060608486031215611f1357611f12611dbc565b5b6000611f2186828701611e0f565b9350506020611f3286828701611e0f565b9250506040611f4386828701611e45565b9150509250925092565b600060208284031215611f6357611f62611dbc565b5b6000611f7184828501611e45565b91505092915050565b60006060820190508181036000830152611f948186611d57565b90508181036020830152611fa88185611d57565b90508181036040830152611fbc8184611d57565b9050949350505050565b600060ff82169050919050565b611fdc81611fc6565b82525050565b6000602082019050611ff76000830184611fd3565b92915050565b600080fd5b600080fd5b7f4e487b7100000000000000000000000000000000000000000000000000000000600052604160045260246000fd5b61203f82611d46565b810181811067ffffffffffffffff8211171561205e5761205d612007565b5b80604052505050565b6000612071611db2565b905061207d8282612036565b919050565b600067ffffffffffffffff82111561209d5761209c612007565b5b6120a682611d46565b9050602081019050919050565b82818337600083830152505050565b60006120d56120d084612082565b612067565b9050828152602081018484840111156120f1576120f0612002565b5b6120fc8482856120b3565b509392505050565b600082601f83011261211957612118611ffd565b5b81356121298482602086016120c2565b91505092915050565b60008060006060848603121561214b5761214a611dbc565b5b600084013567ffffffffffffffff81111561216957612168611dc1565b5b61217586828701612104565b935050602084013567ffffffffffffffff81111561219657612195611dc1565b5b6121a286828701612104565b925050604084013567ffffffffffffffff8111156121c3576121c2611dc1565b5b6121cf86828701612104565b9150509250925092565b6000602082840312156121ef576121ee611dbc565b5b60006121fd84828501611e0f565b91505092915050565b600081519050919050565b600082825260208201905092915050565b6000819050602082019050919050565b61223b81611e24565b82525050565b600082825260208201905092915050565b600061225d82611d00565b6122678185612241565b9350612277818560208601611d1c565b61228081611d46565b840191505092915050565b60006080830160008301516122a36000860182612232565b50602083015184820360208601526122bb8282612252565b915050604083015184820360408601526122d58282612252565b915050606083015184820360608601526122ef8282612252565b9150508091505092915050565b6000612308838361228b565b905092915050565b6000602082019050919050565b600061232882612206565b6123328185612211565b93508360208202850161234485612222565b8060005b85811015612380578484038952815161236185826122fc565b945061236c83612310565b925060208a01995050600181019050612348565b50829750879550505050505092915050565b600060208201905081810360008301526123ac818461231d565b905092915050565b600080604083850312156123cb576123ca611dbc565b5b60006123d985828601611e0f565b92505060206123ea85828601611e0f565b9150509250929050565b60006020828403121561240a57612409611dbc565b5b600082013567ffffffffffffffff81111561242857612427611dc1565b5b61243484828501612104565b91505092915050565b7f4e487b7100000000000000000000000000000000000000000000000000000000600052602260045260246000fd5b6000600282049050600182168061248457607f821691505b6020821081036124975761249661243d565b5b50919050565b7f4e487b7100000000000000000000000000000000000000000000000000000000600052603260045260246000fd5b7f4e487b7100000000000000000000000000000000000000000000000000000000600052601160045260246000fd5b600061250682611e24565b915061251183611e24565b9250828201905080821115612529576125286124cc565b5b92915050565b60008190508160005260206000209050919050565b60006020601f8301049050919050565b600082821b905092915050565b6000600883026125917fffffffffffffffffffffffffffffffffffffffffffffffffffffffffffffffff82612554565b61259b8683612554565b95508019841693508086168417925050509392505050565b6000819050919050565b60006125d86125d36125ce84611e24565b6125b3565b611e24565b9050919050565b6000819050919050565b6125f2836125bd565b6126066125fe826125df565b848454612561565b825550505050565b600090565b61261b61260e565b6126268184846125e9565b505050565b5b8181101561264a5761263f600082612613565b60018101905061262c565b5050565b601f82111561268f576126608161252f565b61266984612544565b81016020851015612678578190505b61268c61268485612544565b83018261262b565b50505b505050565b600082821c905092915050565b60006126b260001984600802612694565b1980831691505092915050565b60006126cb83836126a1565b9150826002028217905092915050565b6126e482611d00565b67ffffffffffffffff8111156126fd576126fc612007565b5b612707825461246c565b61271282828561264e565b600060209050601f8311600181146127455760008415612733578287015190505b61273d85826126bf565b8655506127a5565b601f1984166127538661252f565b60005b8281101561277b57848901518255600182019150602085019450602081019050612756565b868310156127985784890151612794601f8916826126a1565b8355505b6001600288020188555050505b505050505050565b600081905092915050565b60006127c382611d00565b6127cd81856127ad565b93506127dd818560208601611d1c565b80840191505092915050565b60006127f582846127b8565b915081905092915050565b60008154905061280f8161246c565b9050919050565b8181036128245750506128fc565b61282d82612800565b67ffffffffffffffff81111561284657612845612007565b5b612850825461246c565b61285b82828561264e565b6000601f83116001811461288a5760008415612878578287015490505b61288285826126bf565b8655506128f5565b601f1984166128988761252f565b96506128a38661252f565b60005b828110156128cb578489015482556001820191506001850194506020810190506128a6565b868310156128e857848901546128e4601f8916826126a1565b8355505b6001600288020188555050505b5050505050505b565b60006080820190506129136000830187611ed0565b81810360208301526129258186611d57565b905081810360408301526129398185611d57565b9050818103606083015261294d8184611d57565b905095945050505050565b600061296382611e24565b91507fffffffffffffffffffffffffffffffffffffffffffffffffffffffffffffffff8203612995576129946124cc565b5b600182019050919050565b60006129ab82611e24565b91506129b683611e24565b92508282039050818111156129ce576129cd6124cc565b5b92915050565b7f45524332303a2064656372656173656420616c6c6f77616e63652062656c6f7760008201527f207a65726f000000000000000000000000000000000000000000000000000000602082015250565b6000612a30602583611d0b565b9150612a3b826129d4565b604082019050919050565b60006020820190508181036000830152612a5f81612a23565b9050919050565b600081905092915050565b60008190508160005260206000209050919050565b60008154612a938161246c565b612a9d8186612a66565b94506001821660008114612ab85760018114612acd57612b00565b60ff1983168652811515820286019350612b00565b612ad685612a71565b60005b83811015612af857815481890152600182019150602081019050612ad9565b838801955050505b50505092915050565b6000612b158284612a86565b915081905092915050565b7f45524332303a20617070726f76652066726f6d20746865207a65726f2061646460008201527f7265737300000000000000000000000000000000000000000000000000000000602082015250565b6000612b7c602483611d0b565b9150612b8782612b20565b604082019050919050565b60006020820190508181036000830152612bab81612b6f565b9050919050565b7f45524332303a20617070726f766520746f20746865207a65726f20616464726560008201527f7373000000000000000000000000000000000000000000000000000000000000602082015250565b6000612c0e602283611d0b565b9150612c1982612bb2565b604082019050919050565b60006020820190508181036000830152612c3d81612c01565b9050919050565b7f45524332303a20696e73756666696369656e7420616c6c6f77616e6365000000600082015250565b6000612c7a601d83611d0b565b9150612c8582612c44565b602082019050919050565b60006020820190508181036000830152612ca981612c6d565b9050919050565b7f45524332303a207472616e736665722066726f6d20746865207a65726f20616460008201527f6472657373000000000000000000000000000000000000000000000000000000602082015250565b6000612d0c602583611d0b565b9150612d1782612cb0565b604082019050919050565b60006020820190508181036000830152612d3b81612cff565b9050919050565b7f45524332303a207472616e7366657220746f20746865207a65726f206164647260008201527f6573730000000000000000000000000000000000000000000000000000000000602082015250565b6000612d9e602383611d0b565b9150612da982612d42565b604082019050919050565b60006020820190508181036000830152612dcd81612d91565b9050919050565b7f45524332303a207472616e7366657220616d6f756e742065786365656473206260008201527f616c616e63650000000000000000000000000000000000000000000000000000602082015250565b6000612e30602683611d0b565b9150612e3b82612dd4565b604082019050919050565b60006020820190508181036000830152612e5f81612e23565b905091905056fea264697066735822122083f48f35a10f869537e5f86c5a90429fd057b2ab0451ec10bc1d34900097152b64736f6c63430008110033",
  "linkReferences": {},
  "deployedLinkReferences": {}
}